:0400000013EF00F00A
:06000800598209ED10F021
:100018005980E0CF01F001C0E0FF59901000EBEFEC
:020028000FF0D7
:100800000052656D6F74652050617373776F726409
:100810003A00556E69766572736964616420646537
:10082000004E65772050617373776F726400555383
:100830004152542076312E3000496E636F727265DA
:100840006374610050617373776F72643F00477522
:1008500061726461646100436F7272656374610008
:1008600050756C73652044004F4B21204E65770016
:100870004375656E636100436C61766500736574F2
:0708800021004F4B21000095
:10088800000E576E000E566E000E476E4868BBECA1
:100898000FF0000E4D6E010E4C6E8CB056EF04F04A
:1008A80059EF04F0010E5AEF04F0000EFF0A456EEE
:1008B8008C504518FE0B45188C6E000E056E320ED6
:1008C800046E61EC0FF04C4A4D2A4DBE75EF04F0F2
:1008D8004D5009E10A0E4C5CD8A075EF04F077EF93
:1008E80004F051EF04F08C908C90800E396E250E38
:1008F8003A6E000E3B6E000E3C6E35EC0EF00BECC3
:100908000FF094EC0EF0490E036E47EC0FF0120E48
:100918000C6E700E0D6ECAEC0FF0070E056ED00E41
:10092800046E61EC0FF0010EFFEC0FF0030E056E84
:10093800E80E046E61EC0FF005EC10F02E0E086E58
:10094800C5EC0EF0070E056ED00E046E61EC0FF0CC
:10095800010EFFEC0FF0030E056EE80E046E61EC5D
:100968000FF0010E0C6E850E0D6ECAEC0FF005EC43
:1009780010F09EAAC2EF04F0C4EF04F00EEF05F0E9
:10098800A8EC0FF04E6E560E4E18D8A4CEEF04F019
:10099800D0EF04F0F1EF04F0A8EC0FF0506EA8ECE3
:1009A8000FF0516EA8EC0FF0526E500E026E490E09
:1009B800036EEAEC0EF00009D8B4E5EF04F0E7EFB7
:1009C80004F0ECEF04F0410ED8EC0FF00EEF05F058
:1009D800580ED8EC0FF00EEF05F0470E4E18D8A4BD
:1009E800F8EF04F0FAEF04F00EEF05F0A8EC0FF0C2
:1009F800506EA8EC0FF0516EA8EC0FF0526E500E2E
:100A0800046E2AEC0FF0490E036E47EC0FF0420E0D
:100A1800D8EC0FF0ECEC0AF0586E5828D8B417EF61
:100A280005F019EF05F0AEEF05F0ECEC0AF0FF0A5F
:100A3800D8A421EF05F023EF05F019EF05F0000E1B
:100A4800056E140E046E61EC0FF00A0E58602FEF5D
:100A580005F031EF05F047EF05F0585036EC0DF092
:100A68004F6E030E57603BEF05F03DEF05F047EF83
:100A780005F05750530FD96EDA6A4FC0DFFF2A0EC0
:100A8800F9EC0FF0572A0E0E5818D8A44EEF05F0BF
:100A980050EF05F062EF05F05750D8B456EF05F067
:100AA80058EF05F062EF05F05706100EFFEC0FF057
:100AB800200EF9EC0FF0100EFFEC0FF00D0E581889
:100AC800D8A469EF05F06BEF05F0AEEF05F0030E63
:100AD8005718D8A472EF05F074EF05F0AEEF05F0E3
:100AE800530E026E490E036EEAEC0EF00009D8B4FC
:100AF80080EF05F082EF05F098EF05F0820E0C6E9E
:100B0800570E0D6ECAEC0FF0070E056ED00E046E70
:100B180061EC0FF0010E0C6E850E0D6ECAEC0FF035
:100B2800010E566EACEF05F0770E0C6E390E0D6E99
:100B3800CAEC0FF0070E056ED00E046E61EC0FF0D4
:100B4800010E0C6E850E0D6ECAEC0FF0000E566E7F
:100B5800000E576E5604D8A4B4EF05F0B6EF05F0B2
:100B6800DFEF05F04704D8B4BCEF05F0BEEF05F0A1
:100B7800DFEF05F0680E0C6E440E0D6ECAEC0FF038
:100B8800070E056ED00E046E61EC0FF0010EFFEC3F
:100B98000FF0680E0C6E850E0D6ECAEC0FF005ECAA
:100BA80010F0000E576E000E536E000E546E000EBD
:100BB800556E020E566E020E5618D8A4E6EF05F0D2
:100BC800E8EF05F086EF06F0ECEC0AF0586E5828CE
:100BD800D8B4F1EF05F0F3EF05F086EF06F04850D2
:100BE8005818D8B4FAEF05F0FCEF05F086EF06F0D8
:100BF80058C048F0ECEC0AF0FF0AD8A406EF06F05B
:100C080008EF06F0FEEF05F0000E056E140E046EF8
:100C180061EC0FF00A0E586014EF06F016EF06F0BC
:100C28002CEF06F0585036EC0DF04F6E030E57605F
:100C380020EF06F022EF06F02CEF06F05750530F86
:100C4800D96EDA6A4FC0DFFF2A0EF9EC0FF0572A87
:100C58000E0E5818D8A433EF06F035EF06F047EF1C
:100C680006F05750D8B43BEF06F03DEF06F047EFDB
:100C780006F05706100EFFEC0FF0200EF9EC0FF0FF
:100C8800100EFFEC0FF00D0E5818D8A44EEF06F01A
:100C980050EF06F07DEF06F0030E5718D8A457EF73
:100CA80006F059EF06F07DEF06F0530E046E2AECBD
:100CB8000FF0000E056E140E046E61EC0FF0490E75
:100CC800036E47EC0FF0770E0C6E4E0E0D6ECAECED
:100CD8000FF0070E056ED00E046E61EC0FF0000EDB
:100CE800566E000E576E010E0C6E850E0D6ECAEC18
:100CF8000FF05828D8A483EF06F085EF06F086EFAA
:100D080006F04868030E5618D8A48DEF06F08FEF4A
:100D180006F0B9EF06F0A8EC0FF0466E420E461842
:100D2800D8A499EF06F09BEF06F0B9EF06F0210E74
:100D38000C6E7D0E0D6ECAEC0FF0130E056E880E4C
:100D4800046E61EC0FF0000E536E000E546E000E30
:100D5800556E000E576E010E0C6E850E0D6ECAECA8
:100D68000FF005EC10F0000E566E56C047F0BDEFC0
:100D780004F013EF00F02C50800B356E2C502C240F
:100D8800376E2BAECAEF06F0CCEF06F0CDEF06F0CB
:100D980037803750D8B4D3EF06F0D5EF06F0EAEF36
:100DA80006F03728D8A4DBEF06F0DDEF06F0E5EF14
:100DB80006F0000E296E000E2A6E000E2B6E000E35
:100DC8002C6E2B8E000E2C6EF2EF06F0000E296EA4
:100DD800000E2A6E000E2B6E000E2C6E3050800B0B
:100DE800366E35503618D8B4FCEF06F0FEEF06F034
:100DF800FFEF06F0358C30503024366E2FAE07EFFB
:100E080007F009EF07F00AEF07F036803650D8B43C
:100E180010EF07F012EF07F027EF07F03628D8A4F5
:100E280018EF07F01AEF07F022EF07F0000E2D6E0B
:100E3800000E2E6E000E2F6E000E306E2F8E000EDE
:100E4800306E2FEF07F0000E2D6E000E2E6E000E86
:100E58002F6E000E306E3750365CD8B036EF07F084
:100E680038EF07F05FEF07F035AC3DEF07F03FEFE5
:100E780007F041EF07F0800E351A37C038F036C05A
:100E880037F038C036F029C038F02DC029F038C006
:100E98002DF02AC038F02EC02AF038C02EF02BC012
:100EA80038F02FC02BF038C02FF02CC038F030C0ED
:100EB8002CF038C030F0000E386E375036C031F0A4
:100EC800326A315E000E325A32BE74EF07F0325089
:100ED80009E11A0E315CD8A074EF07F076EF07F03D
:100EE800ADEF07F029502A102B102C10D8A47FEF53
:100EF80007F082EF07F0010E83EF07F0000E386E5F
:100F0800000E296E000E2A6E000E2B6E000E2C6E3F
:100F180036C037F0B6EF07F038A095EF07F097EF37
:100F280007F09DEF07F0D89038300109386E9FEF31
:100F380007F0D890383229A0A4EF07F0A6EF07F001
:100F4800A7EF07F0388E2C342C322B322A32293274
:100F5800372A3650375CD8A0B4EF07F0B6EF07F061
:100F680090EF07F035BCBBEF07F0BDEF07F0FDEFE2
:100F780007F03750D8A4C3EF07F0C5EF07F0CFEF5D
:100F880007F0000E296E000E2A6E000E2B6E000E62
:100F98002C6E1EEF09F02D5029262E502A222F5094
:100FA8002B2230502C222CA0DCEF07F0DEEF07F0CC
:100FB8008AEF08F038A0E3EF07F0E5EF07F0EBEF72
:100FC80007F0D89038300109386EEDEF07F0D89067
:100FD800383229A0F2EF07F0F4EF07F0F5EF07F049
:100FE800388E2C342C322B322A322932372A8AEF87
:100FF80008F02D50295C2E502A582F502B582C5071
:10100800800A316E3050800A3158D8B00EEF08F09F
:1010180010EF08F03BEF08F029502D5C316E2A5094
:101028002E58326E2B502F58336E2C503058346E49
:10103800FF0E3124296EFF0E32202A6EFF0E332058
:101048002B6EFF0E34202C6E800E351A386C3850FB
:10105800D8A431EF08F033EF08F043EF08F0010EA1
:101068002926000E2A222B222C2243EF08F02D508D
:10107800295E2E502A5A2F502B5A30502C5A29505C
:101088002A102B102C10D8A44CEF08F04EEF08F0C3
:1010980083EF08F03850D8A454EF08F056EF08F062
:1010A80083EF08F0000E296E000E2A6E000E2B6EDC
:1010B800000E2C6E1EEF09F0D89029362A362B36F2
:1010C8002C3638AE6AEF08F06CEF08F06DEF08F0D8
:1010D800298038A072EF08F074EF08F078EF08F074
:1010E800D88038367AEF08F0D89038363750D8B4E8
:1010F80080EF08F082EF08F083EF08F037062BAE98
:1011080088EF08F08AEF08F060EF08F0000E366EFE
:1011180038AE91EF08F093EF08F0ABEF08F038C065
:1011280031F07F0E3116D8B49CEF08F09EEF08F02E
:10113800A2EF08F0010E366EABEF08F029A0A7EF7A
:1011480008F0A9EF08F0ABEF08F09EEF08F0365072
:10115800D8B4B1EF08F0B3EF08F0DEEF08F0010EF5
:101168002926000E2A222B222C222CA0BEEF08F0C2
:10117800C0EF08F0DEEF08F029C031F02AC032F0E5
:101188002BC033F02CC034F03434343233323232A2
:10119800313231C029F032C02AF033C02BF034C0CC
:1011A8002CF03728D8B4DBEF08F0DDEF08F0DEEFDD
:1011B80008F0372A3728D8B4E4EF08F0E6EF08F04B
:1011C800EEEF08F03750D8A4ECEF08F0EEEF08F097
:1011D80000EF09F0000E296E000E2A6E000E2B6E2D
:1011E800000E2C6E3750D8A4FCEF08F0FEEF08F084
:1011F80000EF09F0000E356E37A005EF09F007EF94
:1012080009F00AEF09F02B8E0BEF09F02B9ED8900E
:1012180037302C6E35AE13EF09F015EF09F016EFE5
:1012280009F02C8E29C029F02AC02AF02BC02BF0F7
:101238002CC02CF012001350800B206E1350132476
:10124800276E12AE2AEF09F02CEF09F02DEF09F006
:1012580027802750D8B433EF09F035EF09F04AEF6B
:1012680009F02728D8A43BEF09F03DEF09F045EF36
:1012780009F0000E106E000E116E000E126E000EB8
:10128800136E128E000E136E52EF09F0000E106EE0
:10129800000E116E000E126E000E136E1750800BAA
:1012A800201A17501724286E16AE5DEF09F05FEF6D
:1012B80009F060EF09F028802850D8B466EF09F0EB
:1012C80068EF09F07DEF09F02828D8A46EEF09F03F
:1012D80070EF09F078EF09F0000E146E000E156E2D
:1012E800000E166E000E176E168E000E176E85EF26
:1012F80009F0000E146E000E156E000E166E000E2C
:10130800176E1450151016101710D8A48EEF09F088
:1013180090EF09F0A8EF09F0000E106E000E116EA4
:10132800000E126E000E136E800E12127F0E131234
:101338002050131210C010F011C011F012C012F09A
:1013480013C013F0EBEF0AF02750D8A4AEEF09F062
:10135800B0EF09F0BAEF09F0000E106E000E116E32
:10136800000E126E000E136EEBEF0AF0285027C025
:1013780018F0196A185E000E195A7F0E1824216E8B
:10138800000E1920226E10C01CF011C01DF012C0F2
:101398001EF013C01FF0000E106E000E116E000E2E
:1013A800126E000E136E000E236E000E246E000ED9
:1013B800256E000E266E000E286E1BEF0AF02850D0
:1013C800D8B4E9EF09F0EBEF09F002EF0AF0D89092
:1013D8001C361D361E361F36D8901036113612367A
:1013E800133626AEFAEF09F0FCEF09F0FDEF09F02D
:1013F8001080D890233624362536263614501C5CA7
:1014080015501D5816501E5817501F58D8A00FEFCA
:101418000AF011EF0AF01AEF0AF0268C14501C5E3D
:1014280015501D5A16501E5A17501F5A282A190EA1
:10143800286421EF0AF023EF0AF0E3EF09F01C50CB
:101448001D101E101F10D8B42CEF0AF02EEF0AF052
:1014580046EF0AF0238046EF0AF0D890103611368E
:101468001236133626AE3BEF0AF03DEF0AF03EEF98
:101478000AF01080D89023362436253626362106E1
:10148800D8A0220612AE4BEF0AF04DEF0AF031EF6A
:101498000AF0000E286E26AE54EF0AF056EF0AF056
:1014A8007AEF0AF0FF0E2314186EFF0E2414196E3B
:1014B800FF0E25141A6E7F0E26141B6E1850191075
:1014C8001A101B10D8B46BEF0AF06DEF0AF071EF29
:1014D8000AF0010E286E7AEF0AF010A076EF0AF0F3
:1014E80078EF0AF07AEF0AF06DEF0AF02850D8B4D6
:1014F80080EF0AF082EF0AF0A6EF0AF0010E10263C
:10150800000E11221222132213A08DEF0AF08FEF82
:101518000AF0A6EF0AF010C018F011C019F012C0B6
:101528001AF013C01BF01B341B321A32193218324E
:1015380018C010F019C011F01AC012F01BC013F037
:10154800214A222A22BEB1EF0AF0225008E12128BE
:10155800D8A0B1EF0AF0B3EF0AF0BEEF0AF0000E20
:10156800226E2168000E106E000E116E000E126EB3
:10157800000E136E22BECBEF0AF0225006E12104C2
:10158800D8B0C9EF0AF0CBEF0AF0D9EF0AF0000E95
:10159800226E000E216E000E106E000E116E000EEF
:1015A800126E000E136E000E206E21C027F027A0C9
:1015B800E0EF0AF0E2EF0AF0E5EF0AF0128EE6EF4C
:1015C8000AF0129ED8902730136E9CEF09F0120093
:1015D8000B68700E8A6E000E056E050E046E61ECC7
:1015E8000FF007EF0BF0010E0B6E24EF0BF0020E5D
:1015F8000B6E24EF0BF0030E0B6E24EF0BF00A0EAC
:101608000B6E24EF0BF08150096E0A6A0A50000A2B
:10161800D8B411EF0BF024EF0BF00950770AD8B4C7
:10162800F7EF0AF00C0AD8B4FBEF0AF0060AD8B4B0
:10163800FFEF0AF0030AD8B403EF0BF024EF0BF026
:10164800B00E8A6E000E056E050E046E61EC0FF08A
:101658003EEF0BF0040E0B6E5BEF0BF0050E0B6EFE
:101668005BEF0BF0060E0B6E5BEF0BF00B0E0B6EC9
:101678005BEF0BF08150096E0A6A0A50000AD8B471
:1016880048EF0BF05BEF0BF00950B70AD8B42EEF18
:101698000BF00C0AD8B432EF0BF0060AD8B436EFC8
:1016A8000BF0030AD8B43AEF0BF05BEF0BF0D00E57
:1016B8008A6E000E056E050E046E61EC0FF075EF74
:1016C8000BF0070E0B6E92EF0BF0080E0B6E92EFFD
:1016D8000BF0090E0B6E92EF0BF00C0E0B6E92EFE7
:1016E8000BF08150096E0A6A0A50000AD8B47FEFDD
:1016F8000BF092EF0BF00950D70AD8B465EF0BF056
:101708000C0AD8B469EF0BF0060AD8B46DEF0BF0E9
:10171800030AD8B471EF0BF092EF0BF0E00E8A6E6B
:10172800000E056E050E046E61EC0FF0ACEF0BF0C9
:101738000E0E0B6EC9EF0BF0000E0B6EC9EF0BF01F
:101748000F0E0B6EC9EF0BF00D0E0B6EC9EF0BF001
:101758008150096E0A6A0A50000AD8B4B6EF0BF035
:10176800C9EF0BF00950E70AD8B49CEF0BF00C0A4C
:10177800D8B4A0EF0BF0060AD8B4A4EF0BF0030A14
:10178800D8B4A8EF0BF0C9EF0BF00B28D8B4CFEF03
:101798000BF0D1EF0BF0D7EF0BF0000E056E320E09
:1017A800046E61EC0FF00B5012000A6E0A50D8B4A8
:1017B800E0EF0BF0E2EF0BF004EF0CF005BEE9EF01
:1017C8000BF0E7EF0BF004EF0CF002C006F003C0DB
:1017D80007F004C008F005C009F0061E071E081E21
:1017E800091E062A000E07220822092206C00CF04C
:1017F80007C00DF008C00EF009C00FF00CEF0CF098
:1018080002C00CF003C00DF004C00EF005C00FF0CC
:101818000250031004100510D8A415EF0CF017EFB0
:101828000CF021EF0CF0000E026E000E036E000E9D
:10183800046E000E056EB2EF0CF0960E0B6E2BEFD9
:101848000CF00B2AD8900F320E320D320C32000EEB
:101858000C14066E000E0D14076E000E0E14086EA2
:10186800FE0E0F14096E0650071008100910D8A4B0
:1018780040EF0CF042EF0CF025EF0CF050EF0CF0BD
:101888000B2A010E0C26000E0D220E220F22D890D4
:101898000F320E320D320C32000E0C14066E000E92
:1018A8000D14076E000E0E14086EFF0E0F14096E4D
:1018B8000650071008100910D8A465EF0CF067EF60
:1018C8000CF044EF0CF06FEF0CF00B06D8900C36D0
:1018D8000D360E360F360EBE74EF0CF076EF0CF0A8
:1018E8007EEF0CF0020E0B607CEF0CF07EEF0CF03C
:1018F80069EF0CF00BB083EF0CF085EF0CF086EF7E
:101908000CF00E9ED8900B320BC006F0076A086ADE
:10191800096A06C009F0086A076A066A06500C12C6
:1019280007500D1208500E1209500F120A50D8B461
:10193800A0EF0CF0A2EF0CF0AAEF0CF005BEA9EF97
:101948000CF0A7EF0CF0AAEF0CF00F8E0CC002F011
:101958000DC003F00EC004F00FC005F012000434EF
:1019680005340B6E0B50D8A4BCEF0CF0BEEF0CF096
:10197800C8EF0CF0000E026E000E036E000E046E2F
:10198800000E056E35EF0DF002C006F003C007F03B
:1019980004C008F005C009F0200ED8EF0CF0D8906C
:1019A8000932083207320632E82ED3EF0CF006501F
:1019B8000A6E048EFF0E0216FF0E0316FF0E0416A3
:1019C800000E0516960E0B5E0BBEEFEF0CF0EDEF5A
:1019D8000CF005EF0DF00B50800A970FD8B0F7EF19
:1019E8000CF0F9EF0CF0FBEF0CF0BEEF0CF0D89018
:1019F80005320432033202320B3EFBEF0CF01DEFCE
:101A08000DF01F0E0B640BEF0DF00DEF0DF015EF41
:101A18000DF0BEEF0CF0D8900236033604360536CA
:101A28000B060B50D8A41BEF0DF01DEF0DF00FEFB8
:101A38000DF00A50D8B423EF0DF025EF0DF02DEF7F
:101A48000DF0051E041E031E026C000E0322042264
:101A5800052202C002F003C003F004C004F005C070
:101A680005F01200046E69EF0DF0300EB7EF0DF0BF
:101A7800310EB7EF0DF0320EB7EF0DF0330EB7EFB2
:101A88000DF0340EB7EF0DF0350EB7EF0DF0360E42
:101A9800B7EF0DF0370EB7EF0DF0380EB7EF0DF0CA
:101AA800390EB7EF0DF0410EB7EF0DF0420EB7EF5C
:101AB8000DF0430EB7EF0DF0440EB7EF0DF02A0E00
:101AC800B7EF0DF0230EB7EF0DF00450026E036A66
:101AD8000350000AD8B473EF0DF0B6EF0DF00250C2
:101AE800000AD8B439EF0DF0010AD8B43CEF0DF074
:101AF800030AD8B43FEF0DF0010AD8B442EF0DF055
:101B0800070AD8B445EF0DF0010AD8B448EF0DF034
:101B1800030AD8B44BEF0DF0010AD8B44EEF0DF01C
:101B28000F0AD8B451EF0DF0010AD8B454EF0DF0F4
:101B3800030AD8B457EF0DF0010AD8B45AEF0DF0E4
:101B4800070AD8B45DEF0DF0010AD8B460EF0DF0C4
:101B5800030AD8B463EF0DF0010AD8B466EF0DF0AC
:101B6800B6EF0DF0000E1200066E06C004F0043A3F
:101B78000F0E0416010E0416044689500418FD0BB6
:101B88000418896E06C004F0050E056ED89004325C
:101B9800052ECAEF0DF0010E0416044604468950BE
:101BA8000418FB0B0418896E06C004F0060E056EB7
:101BB800D8900432052EDCEF0DF0010E0416044611
:101BC8000446044689500418F70B0418896E046A01
:101BD80006AE01D0042A010E0416043A89500418EE
:101BE800EF0B0418896EF2EC0FF006C004F0010E3A
:101BF8000416044689500418FD0B0418896E06C0A3
:101C080004F0D8900432010E0416044604468950A4
:101C18000418FB0B0418896E06C004F0D89004322F
:101C2800D8900432010E041604460446044689502E
:101C38000418F70B0418896E06C004F0D890043213
:101C4800D8900432D8900432010E0416043A895010
:101C58000418EF0B0418896EF2EC0FF093EC0FF0F8
:101C68001200948C948E39C03DF03AC03EF03BC0CF
:101C78003FF03CC040F0060ED8903D363E363F3629
:101C88004036E82E40EF0EF03DC002F03EC003F0B3
:101C98003FC004F040C005F0010ED9EC0BF002C0C3
:101CA80014F003C015F004C016F005C017F0000EBC
:101CB800106E1B0E116E370E126E4C0E136E1FEC4B
:101CC80009F010C029F011C02AF012C02BF013C07F
:101CD8002CF0000E2D6E000E2E6E800E2F6EBF0E95
:101CE800306EBFEC06F029C041F02AC042F02BC08C
:101CF80043F02CC044F041C002F042C003F043C09E
:101D080004F044C005F0B3EC0CF00250AF6EAC9E8A
:101D1800AC9CAC8AAC98AC94B896900EAB6E1200A2
:101D2800000EE3EC0FF0310AD8A49DEF0EF09FEF00
:101D38000EF0B5EF0EF0010EE3EC0FF0320AD8A466
:101D4800A8EF0EF0AAEF0EF0B5EF0EF0020EE3ECDE
:101D58000FF0330AD8B4B3EF0EF0B5EF0EF0C4EFBE
:101D68000EF0310E026E000E7BEC0FF0320E026E9A
:101D7800010E7BEC0FF0330E026E020E7BEC0FF0BF
:101D88001200000E0B6E000E0A6ED8EF0EF008500F
:101D98000A24096E09C0F6FF080EF76E0800F55010
:101DA800F9EC0FF00A4A0B2A08500A24096E09C0F8
:101DB800F6FF080EF76E0800F5500009D8A4E7EF03
:101DC8000EF0E9EF0EF0CBEF0EF01200000E066EEB
:101DD80003500624D96EDA6A02500624E16EE26ADC
:101DE800DE50E618D8B4FBEF0EF0FDEF0EF000EF72
:101DF8000FF0000E0AEF0FF0062A020E066407EF36
:101E08000FF009EF0FF0ECEF0EF0010E1200000ECC
:101E1800056E0F0E046E61EC0FF0330EFFEC0FF041
:101E2800320EFFEC0FF0280EFFEC0FF00C0EFFEC5B
:101E38000FF0060EFFEC0FF0010EFFEC0FF0000E96
:101E4800056E050E046E61EC0FF012000450D96E99
:101E5800DA6ADF50026E000E7BEC0FF00450D96E88
:101E6800DA6A010ED926DF50026E010E7BEC0FF004
:101E78000450D96EDA6A020ED926DF50026E020EBD
:101E88007BEC0FF012000350D96EDA6A000EE3EC17
:101E98000FF0DF6E0350D96EDA6A010ED926010EF3
:101EA800E3EC0FF0DF6E0350D96EDA6A020ED92622
:101EB800020EE3EC0FF0DF6E1200000E086E000E4B
:101EC800076E6BEF0FF093EC0FF0074A082A0750E4
:101ED800045C0550800A066E0850800A0658D8B07F
:101EE80078EF0FF07AEF0FF067EF0FF01200036E44
:101EF80003C0A9FF02C0A8FFA69EA69CA684F29EC6
:101F0800550EA76EAA0EA76EA682A6B28EEF0FF088
:101F180090EF0FF089EF0FF0A694F28E1200000EEA
:101F2800036E000E026E024A032A03BEA5EF0FF0ED
:101F38005D0E025C030E0358D8A0A5EF0FF0A7EFC3
:101F48000FF097EF0FF012009EAAADEF0FF0AFEF72
:101F58000FF0A8EF0FF0ABA2B4EF0FF0B6EF0FF051
:101F6800B9EF0FF0AB980000AB88AE5012000F0E1F
:101F7800936EF00E8A6E0F0EC16E95908C909292B1
:101F8800929492969298959295941200010EFFEC75
:101F98000FF00CC008F0C5EC0EF005EC10F00DC009
:101FA80008F0C5EC0EF01200026E02C0ADFFACA244
:101FB800E0EF0FF0E2EF0FF0DBEF0FF01200026E30
:101FC80002C0A9FFA69EA69CA680A8501200599000
:101FD8005992000EF86E000144EF04F08C8493ECE3
:101FE8000FF08C9493EC0FF01200076E8C82075060
:101FF800B8EC0DF01200076E8C920750B8EC0DF09B
:102008001200C00EFFEC0FF0120006009E925992CB
:022018001100B5
:020000040020DA
:08000000FFFFFFFFFFFFFFFF00
:020000040030CA
:0E000000040E1E1EFF8181FF0FC00FE00F4097
:00000001FF
