:040000008DEF05F08B
:1008000000556E6976657273696461642064650081
:1008100054656C65636F6D2D32303236004A616904
:100820006D6520436869717569004375656E636124
:100830000000056E05C003F0033A0F0E0316010E0B
:100840000316034689500318FD0B0318896E05C073
:1008500003F0050E046ED8900332042E2BEF04F043
:10086000010E03160346034689500318FB0B0318B9
:10087000896E05C003F0060E046ED8900332042E74
:100880003DEF04F0010E031603460346034689506C
:100890000318F70B0318896E036A05AE01D0032A0B
:1008A000010E0316033A89500318EF0B0318896EE3
:1008B00094EC05F005C003F0010E031603468950C1
:1008C0000318FD0B0318896E05C003F0D89003329E
:1008D000010E03160346034689500318FB0B031849
:1008E000896E05C003F0D8900332D8900332010E10
:1008F000031603460346034689500318F70B0318F3
:10090000896E05C003F0D8900332D8900332D89096
:100910000332010E0316033A89500318EF0B031834
:10092000896E94EC05F05DEC05F0120080EC05F0AA
:10093000E1EC04F024EC05F0010E0B6E2A0E0C6EB7
:1009400072EC05F0070E046ED00E036E43EC05F05A
:10095000100E0B6E1D0E0C6E72EC05F0070E046E81
:10096000D00E036E43EC05F0010EA1EC05F0030E72
:10097000046EE80E036E43EC05F0000E0D6E100ED3
:100980000B6E1D0E0C6E72EC05F0010E046EF40E73
:10099000036E43EC05F0010EA1EC05F0010E046EB0
:1009A000F40E036E43EC05F00D2A020E0D64DBEF2E
:1009B00004F0DDEF04F0BFEF04F0DDEF04F000EF32
:1009C00000F0000E096E8CA0E8EF04F0ECEF04F0EC
:1009D000086A082AEDEF04F0086A8C500818FE0B2C
:1009E00008188C6E000E046E320E036E43EC05F098
:1009F000092A090E0964FFEF04F001EF05F0E3EFA7
:100A000004F08C801200000E0A6E000E096E14EFC6
:100A100005F007500924086E08C0F6FF0800F550DD
:100A20009BEC05F0094A0A2A07500924086E08C001
:100A3000F6FF0800F5500009D8A421EF05F023EFD8
:100A400005F009EF05F01200000E046E0F0E036EA4
:100A500043EC05F0330EA1EC05F0320EA1EC05F0ED
:100A6000280EA1EC05F00C0EA1EC05F0060EA1EC91
:100A700005F0010EA1EC05F0000E046E050E036EEC
:100A800043EC05F01200000E076E000E066E4DEFEF
:100A900005F05DEC05F0064A072A0650035C045099
:100AA000800A056E0750800A0558D8B05AEF05F045
:100AB0005CEF05F049EF05F01200000E026E000E2B
:100AC000016E014A022A02BE6FEF05F05D0E015C65
:100AD000030E0258D8A06FEF05F071EF05F061EF3B
:100AE00005F01200010EA1EC05F00BC007F003ECBD
:100AF00005F0A7EC05F00CC007F003EC05F01200C0
:100B00000F0EC16E000E956E9292929492969298EC
:100B1000000E896E000E8C6E1200000EF86E080E2C
:100B2000F76E000196EF04F08C845DEC05F08C9478
:100B30005DEC05F01200066E8C82065019EC04F094
:100B40001200066E8C92065019EC04F01200C00ED2
:060B5000A1EC05F012000B
:020000040020DA
:08000000FFFFFFFFFFFFFFFF00
:020000040030CA
:0E000000040E1E1EFF8181FF0FC00FE00F4097
:00000001FF
