:020000040000FA
:0400000010EF00F00D
:020004000000FA
:10002000956A6D966F8694908C6A8B90C60E006E62
:10003000150E016E140E066E8B80320E50EC00F021
:100040008B90320E50EC00F0062E1CEF00F08B80EF
:10005000800E046E010E056E8C6A82B82DEF00F0E2
:1000600082AA47EF00F0045005108C6E320E50EC5F
:1000700000F00442054604A040EF00F043EF00F01A
:1000800004A630EF00F00442054630EF00F08C6A21
:1000900082AA48EF00F057EC00F082BA28EF00F097
:1000A000036E5FEC00F0032E51EF00F012005FECE6
:1000B00000F0022E57EF00F0640E026E1200012EC7
:1000C00064EF00F06BEF00F0002E64EF00F0C60E5E
:0C00D000006E5FEF00F0150E016E1200D4
:00000001FF
