:0400000007EF00F016
:0A0008001C823FED05F009EF06F041
:1008000000EE3E9C7A9E8EBE6E2E60781C2A3ACEFA
:10081000F60AB61E7C387678EE602A2A9E009C6E18
:1008200060E67C600000FC60DAF266B6BEE0FEF6D0
:0108300000C7
:10083200000E126E000E116E000E0E6E780E0D6E10
:100842006D966F86000E956E94909492949C949EF1
:10085200300E9412000E8C6E8B9E8B9C8B928B9022
:10086200F10ED76E5A0ED66E020ED56ED08EF18470
:10087200F28AF294F28EF28CD58E000E106E000E79
:100882000F6E8CA047EF04F04BEF04F00C6A0C2AB9
:100892004CEF04F00C6A8C500C18FE0B0C188C6E8A
:1008A200000E086E320E076EEFEC05F00F4A102AAA
:1008B20010BE65EF04F0105009E10A0E0F5CD8A0DB
:1008C20065EF04F067EF04F042EF04F08C80080E4D
:1008D200F66E080EF76E0800F5CF13F00E0EF66EE8
:1008E200080EF76E0800F5CF14F00C0EF66E080E27
:1008F200F76E0800F5CF15F0010EF66E080EF76ED2
:100902000800F5CF16F0010E1B6E000E196E82B8AC
:100912008DEF04F08FEF04F0B9EF04F0000E086ED3
:10092200140E076EEFEC05F082B89AEF04F09CEF1C
:1009320004F0B9EF04F01950D8A4A2EF04F0A4EF28
:1009420004F0AEEF04F0000E126E000E116E000EF7
:10095200066E000E056EB0EC05F0010E196E010E6A
:100962001B6E82A8B7EF04F0B9EF04F0B2EF04F007
:1009720082BABEEF04F0C0EF04F0EDEF04F0000E17
:10098200086E140E076EEFEC05F082BACBEF04F09E
:10099200CDEF04F0EDEF04F01904D8A4D3EF04F086
:1009A200D5EF04F0D9EF04F0020E196EE6EF04F071
:1009B200020E1918D8A4E0EF04F0E2EF04F0E6EF1B
:1009C20004F0010E196EE6EF04F082AAEBEF04F0D8
:1009D200EDEF04F0E6EF04F01950D8A4F3EF04F0C1
:1009E200F5EF04F0F9EF04F0010E1B6E88EF04F04E
:1009F2001904D8A4FFEF04F001EF05F02CEF05F085
:100A02000D50175C0E501858D8A00AEF05F00CEFE5
:100A120005F088EF04F0000E186E000E176E11C07C
:100A220005F012C006F0B0EC05F0114A122A12BE0F
:100A320024EF05F0125009E10F0E115CD8A024EF4B
:100A420005F026EF05F03BEF05F0000E126E000EEA
:100A5200116E88EF04F0020E1918D8A433EF05F0D6
:100A620035EF05F03BEF05F0000E186E000E176E25
:100A720088EF04F088EF04F007EF00F00600D9CF0A
:100A820003F0DACF04F0F2A449EF05F04BEF05F0E2
:100A9200AAEF05F0F10ED76E5A0ED66E8B9E8B9C86
:100AA2008B928B901B50D8B459EF05F05BEF05F099
:100AB20098EF05F08CB060EF05F064EF05F0016A85
:100AC200012A65EF05F0016A1A50130FD96EDA6A2E
:100AD200DF50FE0B01108C6E7BEF05F08B8E9CEFCE
:100AE20005F08B8C9CEF05F08B829CEF05F08B80E0
:100AF2009CEF05F01A50016E026A0250000AD8B447
:100B020085EF05F09CEF05F00150000AD8B46FEFB5
:100B120005F0010AD8B472EF05F0030AD8B475EFF4
:100B220005F0010AD8B478EF05F09CEF05F0000E4D
:100B32008CB0010E8C6E1A2A030E1A64A3EF05F014
:100B4200A5EF05F0A7EF05F0000E1A6E174A182A56
:100B5200F29404C0DAFF03C0D9FF1C921100000E08
:100B62000A6E000E096E09500524076E0A5006200F
:100B7200086E08BEC8EF05F0085007E10F0E075CCB
:100B8200D8B0C6EF05F0C8EF05F0D9EF05F0055073
:100B9200170F0924076E07C0F6FF080EF76E0950FB
:100BA200130FD96EDA6A0800F5CFDFFFDEEF05F02A
:100BB2000950130FD96EDA6ADF6A094A0A2A0ABE95
:100BC200ECEF05F00A5009E1040E095CD8A0ECEF45
:100BD20005F0EEEF05F0B4EF05F01200000E0B6E1B
:100BE200000E0A6EF9EF05F01FEC06F00A4A0B2A16
:100BF2000A50075C0850800A096E0B50800A095897
:100C0200D8B006EF06F008EF06F0F5EF05F0120097
:100C1200680EF66E0C0EF76E000EF86E0900F5CF38
:100C22001BF000EE13F0080EEE6AE806FDE11C90E0
:100C32001C92000EF86E000119EF04F0000E066E11
:100C4200000E056E054A062A06BE31EF06F05D0E5D
:100C5200055C030E0658D8A031EF06F033EF06F01C
:070C620023EF06F012000170
:020000040020DA
:08000000FFFFFFFFFFFFFFFF00
:020000040030CA
:0E000000040E1E1EFF8181FF0FC00FE00F4097
:00000001FF
