:0400000013EF00F00A
:060008004D8278ED0DF0C1
:100018004D80E0CF01F001C0E0FF4D9010005AEF95
:020028000DF0D9
:1008000000556E6976657273696461642064650081
:1008100055534152542076312E30004375656E6336
:0308200061000074
:100824002C50800B356E2C502C24376E2BAE1DEFC4
:1008340004F01FEF04F020EF04F037803750D8B4F1
:1008440026EF04F028EF04F03DEF04F03728D8A495
:100854002EEF04F030EF04F038EF04F0000E296EB0
:10086400000E2A6E000E2B6E000E2C6E2B8E000EC8
:100874002C6E45EF04F0000E296E000E2A6E000E59
:100884002B6E000E2C6E3050800B366E35503618A1
:10089400D8B44FEF04F051EF04F052EF04F0358C6C
:1008A40030503024366E2FAE5AEF04F05CEF04F073
:1008B4005DEF04F036803650D8B463EF04F065EF92
:1008C40004F07AEF04F03628D8A46BEF04F06DEF4F
:1008D40004F075EF04F0000E2D6E000E2E6E000E67
:1008E4002F6E000E306E2F8E000E306E82EF04F0ED
:1008F400000E2D6E000E2E6E000E2F6E000E306E4A
:100904003750365CD8B089EF04F08BEF04F0B2EFC7
:1009140004F035AC90EF04F092EF04F094EF04F09F
:10092400800E351A37C038F036C037F038C036F08C
:1009340029C038F02DC029F038C02DF02AC038F075
:100944002EC02AF038C02EF02BC038F02FC02BF068
:1009540038C02FF02CC038F030C02CF038C030F044
:10096400000E386E375036C031F0326A315E000EF8
:10097400325A32BEC7EF04F0325009E11A0E315C2C
:10098400D8A0C7EF04F0C9EF04F000EF05F0295038
:100994002A102B102C10D8A4D2EF04F0D5EF04F0B9
:1009A400010ED6EF04F0000E386E000E296E000E14
:1009B4002A6E000E2B6E000E2C6E36C037F009EF37
:1009C40005F038A0E8EF04F0EAEF04F0F0EF04F0EB
:1009D400D89038300109386EF2EF04F0D8903832EC
:1009E40029A0F7EF04F0F9EF04F0FAEF04F0388EE1
:1009F4002C342C322B322A322932372A3650375CA7
:100A0400D8A007EF05F009EF05F0E3EF04F035BCDB
:100A14000EEF05F010EF05F050EF05F03750D8A4B5
:100A240016EF05F018EF05F022EF05F0000E296E21
:100A3400000E2A6E000E2B6E000E2C6E71EF06F067
:100A44002D5029262E502A222F502B2230502C2272
:100A54002CA02FEF05F031EF05F0DDEF05F038A005
:100A640036EF05F038EF05F03EEF05F0D89038305A
:100A74000109386E40EF05F0D890383229A045EFCF
:100A840005F047EF05F048EF05F0388E2C342C3292
:100A94002B322A322932372ADDEF05F02D50295C1A
:100AA4002E502A582F502B582C50800A316E30501B
:100AB400800A3158D8B061EF05F063EF05F08EEF8E
:100AC40005F029502D5C316E2A502E58326E2B5071
:100AD4002F58336E2C503058346EFF0E3124296E4B
:100AE400FF0E32202A6EFF0E33202B6EFF0E3420B1
:100AF4002C6E800E351A386C3850D8A484EF05F06B
:100B040086EF05F096EF05F0010E2926000E2A2245
:100B14002B222C2296EF05F02D50295E2E502A5AB6
:100B24002F502B5A30502C5A29502A102B102C108D
:100B3400D8A49FEF05F0A1EF05F0D6EF05F03850EB
:100B4400D8A4A7EF05F0A9EF05F0D6EF05F0000E45
:100B5400296E000E2A6E000E2B6E000E2C6E71EFA5
:100B640006F0D89029362A362B362C3638AEBDEF0F
:100B740005F0BFEF05F0C0EF05F0298038A0C5EF00
:100B840005F0C7EF05F0CBEF05F0D8803836CDEF90
:100B940005F0D89038363750D8B4D3EF05F0D5EFF8
:100BA40005F0D6EF05F037062BAEDBEF05F0DDEFF1
:100BB40005F0B3EF05F0000E366E38AEE4EF05F045
:100BC400E6EF05F0FEEF05F038C031F07F0E311688
:100BD400D8B4EFEF05F0F1EF05F0F5EF05F0010EF5
:100BE400366EFEEF05F029A0FAEF05F0FCEF05F0F4
:100BF400FEEF05F0F1EF05F03650D8B404EF06F03F
:100C040006EF06F031EF06F0010E2926000E2A2227
:100C14002B222C222CA011EF06F013EF06F031EF5B
:100C240006F029C031F02AC032F02BC033F02CC0BA
:100C340034F03434343233323232313231C029F088
:100C440032C02AF033C02BF034C02CF03728D8B48B
:100C54002EEF06F030EF06F031EF06F0372A372892
:100C6400D8B437EF06F039EF06F041EF06F037500D
:100C7400D8A43FEF06F041EF06F053EF06F0000E64
:100C8400296E000E2A6E000E2B6E000E2C6E37504D
:100C9400D8A44FEF06F051EF06F053EF06F0000E24
:100CA400356E37A058EF06F05AEF06F05DEF06F008
:100CB4002B8E5EEF06F02B9ED89037302C6E35AE1F
:100CC40066EF06F068EF06F069EF06F02C8E29C097
:100CD40029F02AC02AF02BC02BF02CC02CF01200D3
:100CE4001350800B206E13501324276E12AE7DEF29
:100CF40006F07FEF06F080EF06F027802750D8B487
:100D040086EF06F088EF06F09DEF06F02728D8A4BA
:100D14008EEF06F090EF06F098EF06F0000E106EDE
:100D2400000E116E000E126E000E136E128E000E67
:100D3400136EA5EF06F0000E106E000E116E000E7D
:100D4400126E000E136E1750800B201A17501724C2
:100D5400286E16AEB0EF06F0B2EF06F0B3EF06F071
:100D640028802850D8B4B9EF06F0BBEF06F0D0EFD6
:100D740006F02828D8A4C1EF06F0C3EF06F0CBEFA5
:100D840006F0000E146E000E156E000E166E000EA8
:100D9400176E168E000E176ED8EF06F0000E146E46
:100DA400000E156E000E166E000E176E1450151000
:100DB40016101710D8A4E1EF06F0E3EF06F0FBEFEE
:100DC40006F0000E106E000E116E000E126E000E74
:100DD400136E800E12127F0E13122050131210C0C5
:100DE40010F011C011F012C012F013C013F03EEF56
:100DF40008F02750D8A401EF07F003EF07F00DEF38
:100E040007F0000E106E000E116E000E126E000E32
:100E1400136E3EEF08F0285027C018F0196A185EC8
:100E2400000E195A7F0E1824216E000E1920226E0E
:100E340010C01CF011C01DF012C01EF013C01FF032
:100E4400000E106E000E116E000E126E000E136E68
:100E5400000E236E000E246E000E256E000E266E0C
:100E6400000E286E6EEF07F02850D8B43CEF07F060
:100E74003EEF07F055EF07F0D8901C361D361E36AE
:100E84001F36D890103611361236133626AE4DEF73
:100E940007F04FEF07F050EF07F01080D89023369B
:100EA40024362536263614501C5C15501D58165011
:100EB4001E5817501F58D8A062EF07F064EF07F0D0
:100EC4006DEF07F0268C14501C5E15501D5A1650F9
:100ED4001E5A17501F5A282A190E286474EF07F057
:100EE40076EF07F036EF07F01C501D101E101F1090
:100EF400D8B47FEF07F081EF07F099EF07F0238074
:100F040099EF07F0D890103611361236133626AE04
:100F14008EEF07F090EF07F091EF07F01080D89074
:100F240023362436253626362106D8A0220612AECC
:100F34009EEF07F0A0EF07F084EF07F0000E286E95
:100F440026AEA7EF07F0A9EF07F0CDEF07F0FF0EED
:100F54002314186EFF0E2414196EFF0E25141A6E36
:100F64007F0E26141B6E185019101A101B10D8B4BB
:100F7400BEEF07F0C0EF07F0C4EF07F0010E286ED4
:100F8400CDEF07F010A0C9EF07F0CBEF07F0CDEFDE
:100F940007F0C0EF07F02850D8B4D3EF07F0D5EF2F
:100FA40007F0F9EF07F0010E1026000E11221222AD
:100FB400132213A0E0EF07F0E2EF07F0F9EF07F0D8
:100FC40010C018F011C019F012C01AF013C01BF0B1
:100FD4001B341B321A321932183218C010F019C0DF
:100FE40011F01AC012F01BC013F0214A222A22BEAB
:100FF40004EF08F0225008E12128D8A004EF08F0FB
:1010040006EF08F011EF08F0000E226E2168000EC2
:10101400106E000E116E000E126E000E136E22BEC4
:101024001EEF08F0225006E12104D8B01CEF08F0AE
:101034001EEF08F02CEF08F0000E226E000E216E59
:10104400000E106E000E116E000E126E000E136E66
:10105400000E206E21C027F027A033EF08F035EFF3
:1010640008F038EF08F0128E39EF08F0129ED8908D
:101074002730136EEFEF06F012000B68700E8A6EC5
:10108400000E056E050E046EF0EC0CF05AEF08F03D
:10109400010E0B6E77EF08F0020E0B6E77EF08F07F
:1010A400030E0B6E77EF08F00A0E0B6E77EF08F065
:1010B4008150096E0A6A0A50000AD8B464EF08F035
:1010C40077EF08F00950770AD8B44AEF08F00C0A11
:1010D400D8B44EEF08F0060AD8B452EF08F0030A69
:1010E400D8B456EF08F077EF08F0B00E8A6E000E11
:1010F400056E050E046EF0EC0CF091EF08F0040E92
:101104000B6EAEEF08F0050E0B6EAEEF08F0060E98
:101114000B6EAEEF08F00B0E0B6EAEEF08F08150C5
:10112400096E0A6A0A50000AD8B49BEF08F0AEEFC1
:1011340008F00950B70AD8B481EF08F00C0AD8B403
:1011440085EF08F0060AD8B489EF08F0030AD8B48A
:101154008DEF08F0AEEF08F0D00E8A6E000E056E2B
:10116400050E046EF0EC0CF0C8EF08F0070E0B6EE1
:10117400E5EF08F0080E0B6EE5EF08F0090E0B6EB4
:10118400E5EF08F00C0E0B6EE5EF08F08150096EE8
:101194000A6A0A50000AD8B4D2EF08F0E5EF08F062
:1011A4000950D70AD8B4B8EF08F00C0AD8B4BCEF89
:1011B40008F0060AD8B4C0EF08F0030AD8B4C4EFA4
:1011C40008F0E5EF08F0E00E8A6E000E056E050EDD
:1011D400046EF0EC0CF0FFEF08F00E0E0B6E1CEF3B
:1011E40009F0000E0B6E1CEF09F00F0E0B6E1CEFD6
:1011F40009F00D0E0B6E1CEF09F08150096E0A6A9E
:101204000A50000AD8B409EF09F01CEF09F009509C
:10121400E70AD8B4EFEF08F00C0AD8B4F3EF08F0FB
:10122400060AD8B4F7EF08F0030AD8B4FBEF08F0C5
:101234001CEF09F00B28D8B422EF09F024EF09F0D1
:101244002AEF09F0000E056E320E046EF0EC0CF07D
:101254000B5012000A6E0A50D8B433EF09F035EF80
:1012640009F057EF09F005BE3CEF09F03AEF09F039
:1012740057EF09F002C006F003C007F004C008F0FD
:1012840005C009F0061E071E081E091E062A000EC8
:1012940007220822092206C00CF007C00DF008C07E
:1012A4000EF009C00FF05FEF09F002C00CF003C0AC
:1012B4000DF004C00EF005C00FF00250031004102E
:1012C4000510D8A468EF09F06AEF09F074EF09F08B
:1012D400000E026E000E036E000E046E000E056E0C
:1012E40005EF0AF0960E0B6E7EEF09F00B2AD890EC
:1012F4000F320E320D320C32000E0C14066E000E3C
:101304000D14076E000E0E14086EFE0E0F14096EF7
:101314000650071008100910D8A493EF09F095EFB0
:1013240009F078EF09F0A3EF09F00B2A010E0C265F
:10133400000E0D220E220F22D8900F320E320D32E3
:101344000C32000E0C14066E000E0D14076E000E07
:101354000E14086EFF0E0F14096E065007100810C5
:101364000910D8A4B8EF09F0BAEF09F097EF09F023
:10137400C2EF09F00B06D8900C360D360E360F3638
:101384000EBEC7EF09F0C9EF09F0D1EF09F0020E64
:101394000B60CFEF09F0D1EF09F0BCEF09F00BB00F
:1013A400D6EF09F0D8EF09F0D9EF09F00E9ED890E6
:1013B4000B320BC006F0076A086A096A06C009F016
:1013C400086A076A066A06500C1207500D12085084
:1013D4000E1209500F120A50D8B4F3EF09F0F5EFCA
:1013E40009F0FDEF09F005BEFCEF09F0FAEF09F092
:1013F400FDEF09F00F8E0CC002F00DC003F00EC01B
:1014040004F00FC005F01200000E4C6E010E466E83
:1014140032EC0DF0000E486E010E476E8CB015EFE5
:101424000AF018EF0AF0010E19EF0AF0000EFF0A95
:10143400456E8C504518FE0B45188C6E000E056EDB
:10144400320E046EF0EC0CF0474A482A48BE34EFE2
:101454000AF0485009E10A0E475CD8A034EF0AF0BC
:1014640036EF0AF010EF0AF08C90800E396E250EDC
:101474003A6E000E3B6E000E3C6E4DEC0CF0D1EC5F
:101484000CF0010E0C6E1B0E0D6E41EC0DF0070EF0
:10149400056ED00E046EF0EC0CF0010E6EEC0DF047
:1014A400030E056EE80E046EF0EC0CF074EC0DF017
:1014B400100E086EACEC0CF0070E056ED00E046E28
:1014C400F0EC0CF0010E6EEC0DF0030E056EE80E60
:1014D400046EF0EC0CF03FEC08F0496E4928D8B4E7
:1014E40076EF0AF078EF0AF0BAEF0AF03FEC08F072
:1014F400FF0AD8A480EF0AF082EF0AF078EF0AF02E
:10150400000E056E140E046EF0EC0CF049504EEC17
:101514000BF04A6E4A504FEC0DF01FEC0DF04B6E81
:101524001F0E4C6498EF0AF09AEF0AF09FEF0AF04E
:10153400010E6EEC0DF0000E4C6E4650D8B4A5EFC3
:101544000AF0A7EF0AF0ABEF0AF04A5068EC0DF08E
:101554004C2A4B5068EC0DF04C2A100E4C18D8A4B1
:10156400B6EF0AF0B8EF0AF0BAEF0AF074EC0DF037
:10157400410E4B18D8A4C1EF0AF0C3EF0AF0C6EF2E
:101584000AF08C806DEF0AF08C906DEF0AF013EF87
:1015940000F0043405340B6E0B50D8A4D4EF0AF0D9
:1015A400D6EF0AF0E0EF0AF0000E026E000E036EB2
:1015B400000E046E000E056E4DEF0BF002C006F037
:1015C40003C007F004C008F005C009F0200EF0EFD6
:1015D4000AF0D8900932083207320632E82EEBEFCF
:1015E4000AF006500A6E048EFF0E0216FF0E031652
:1015F400FF0E0416000E0516960E0B5E0BBE07EFCB
:101604000BF005EF0BF01DEF0BF00B50800A970F5A
:10161400D8B00FEF0BF011EF0BF013EF0BF0D6EF88
:101624000AF0D89005320432033202320B3E13EF33
:101634000BF035EF0BF01F0E0B6423EF0BF025EFCF
:101644000BF02DEF0BF0D6EF0AF0D89002360336EC
:10165400043605360B060B50D8A433EF0BF035EFE8
:101664000BF027EF0BF00A50D8B43BEF0BF03DEF33
:101674000BF045EF0BF0051E041E031E026C000E5A
:1016840003220422052202C002F003C003F004C0B6
:1016940004F005C005F01200046E81EF0BF0300E6B
:1016A400CFEF0BF0310ECFEF0BF0320ECFEF0BF08C
:1016B400330ECFEF0BF0340ECFEF0BF0350ECFEF30
:1016C4000BF0360ECFEF0BF0370ECFEF0BF0380EDA
:1016D400CFEF0BF0390ECFEF0BF0410ECFEF0BF045
:1016E400420ECFEF0BF0430ECFEF0BF0440ECFEFD3
:1016F4000BF02A0ECFEF0BF0230ECFEF0BF00450BC
:10170400026E036A0350000AD8B48BEF0BF0CEEFDD
:101714000BF00250000AD8B451EF0BF0010AD8B410
:1017240054EF0BF0030AD8B457EF0BF0010AD8B406
:101734005AEF0BF0070AD8B45DEF0BF0010AD8B4E6
:1017440060EF0BF0030AD8B463EF0BF0010AD8B4CE
:1017540066EF0BF00F0AD8B469EF0BF0010AD8B4A6
:101764006CEF0BF0030AD8B46FEF0BF0010AD8B496
:1017740072EF0BF0070AD8B475EF0BF0010AD8B476
:1017840078EF0BF0030AD8B47BEF0BF0010AD8B45E
:101794007EEF0BF0CEEF0BF0000E1200066E06C0CB
:1017A40004F0043A0F0E0416010E04160446895080
:1017B4000418FD0B0418896E06C004F0050E056EAE
:1017C400D8900432052EE2EF0BF0010E0416044605
:1017D400044689500418FB0B0418896E06C004F0F3
:1017E400060E056ED8900432052EF4EF0BF0010EB0
:1017F400041604460446044689500418F70B0418DA
:10180400896E046A06AE01D0042A010E0416043A55
:1018140089500418EF0B0418896E61EC0DF006C0B2
:1018240004F0010E0416044689500418FD0B041834
:10183400896E06C004F0D8900432010E04160446E2
:10184400044689500418FB0B0418896E06C004F082
:10185400D8900432D8900432010E0416044604468B
:10186400044689500418F70B0418896E06C004F066
:10187400D8900432D8900432D8900432010E041661
:10188400043A89500418EF0B0418896E61EC0DF0CA
:101894000AEC0DF01200948C948E39C03DF03AC0DD
:1018A4003EF03BC03FF03CC040F0060ED8903D36C1
:1018B4003E363F364036E82E58EF0CF03DC002F07D
:1018C4003EC003F03FC004F040C005F0010E2CEC14
:1018D40009F002C014F003C015F004C016F005C0EE
:1018E40017F0000E106E1B0E116E370E126E4C0E9A
:1018F400136E72EC06F010C029F011C02AF012C069
:101904002BF013C02CF0000E2D6E000E2E6E800EE8
:101914002F6EBF0E306E12EC04F029C041F02AC0C5
:1019240042F02BC043F02CC044F041C002F042C04E
:1019340003F043C004F044C005F0CBEC0AF00250BD
:10194400AF6EAC9EAC9CAC8AAC98AC94B896900E3E
:10195400AB6E1200000E0B6E000E0A6EBFEF0CF0A1
:1019640008500A24096E09C0F6FF080EF76E080035
:10197400F55068EC0DF00A4A0B2A08500A24096E47
:1019840009C0F6FF080EF76E0800F5500009D8A448
:10199400CEEF0CF0D0EF0CF0B2EF0CF01200000E12
:1019A400056E0F0E046EF0EC0CF0330E6EEC0DF0C1
:1019B400320E6EEC0DF0280E6EEC0DF00C0E6EEC8B
:1019C4000DF0060E6EEC0DF0010E6EEC0DF0000E37
:1019D400056E050E046EF0EC0CF01200000E086E9D
:1019E400000E076EFAEF0CF00AEC0DF0074A082A15
:1019F4000750045C0550800A066E0850800A065899
:101A0400D8B007EF0DF009EF0DF0F6EF0CF012006F
:101A1400000E036E000E026E024A032A03BE1CEF80
:101A24000DF05D0E025C030E0358D8A01CEF0DF000
:101A34001EEF0DF00EEF0DF012009EAA24EF0DF034
:101A440026EF0DF01FEF0DF0ABA22BEF0DF02DEFF5
:101A54000DF030EF0DF0AB980000AB88AE501200E3
:101A64000F0E936EF00E8A6E0F0EC16E95908C90D1
:101A74009292929492969298959295941200010E55
:101A84006EEC0DF00CC008F0ACEC0CF074EC0DF046
:101A94000DC008F0ACEC0CF01200026E02C0ADFFF9
:101AA400ACA257EF0DF059EF0DF052EF0DF012000C
:101AB4004D904D92000EF86E000106EF0AF08C84F2
:101AC4000AEC0DF08C940AEC0DF01200076E8C8277
:101AD4000750D0EC0BF01200076E8C920750D0EC3C
:101AE4000BF01200C00E6EEC0DF0120006009E9278
:041AF4004D921100FE
:020000040020DA
:08000000FFFFFFFFFFFFFFFF00
:020000040030CA
:0E000000040E1E1EFF8181FF0FC00FE00F4097
:00000001FF
