:0400000007EF00F016
:0A000800288276ED05F05EEF07F0A8
:1008000000FC60DAF266B6BEE0FEF600000E1A6E7C
:10081000000E0F6E000E176E000E166E000E196E93
:10082000000E186E6D966F86000E956E94909492E1
:10083000949C949E300E9412000E8C6E8B9E8B9C1A
:100840008B928B90F10ED76E5A0ED66E020ED56E2D
:10085000D08EF184F28AF294F28EF28CD58E000E54
:10086000156E000E146E8CA038EF04F03CEF04F00F
:100870000E6A0E2A3DEF04F00E6A8C500E18FE0B25
:100880000E188C6E000E106E000E116E000E126EA1
:10089000000E136E010E1026000E112212221322DA
:1008A00013BE5FEF04F0135012100BE1F80E105C52
:1008B000A70E1158D8A05FEF04F061EF04F04AEFE3
:1008C00004F0144A152A15BE6FEF04F0155009E123
:1008D0000A0E145CD8A06FEF04F071EF04F033EF50
:1008E00004F08C80A1EC06F0245009E1C80E235CD2
:1008F000D8A07DEF04F07FEF04F0EAEF04F0000EE3
:10090000246E000E236E1A50D8B489EF04F08CEFD9
:1009100004F0010E8DEF04F0000E1A6E8CA093EF20
:1009200004F097EF04F00E6A0E2A98EF04F00E6AB6
:100930008C500E18FE0B0E188C6E2550D8A4A3EF09
:1009400004F0A5EF04F0A9EF04F01AC027F0EAEFD5
:1009500004F0010E276E1A50D8A4B1EF04F0B3EFE3
:1009600004F0EAEF04F00F2A3B0E0F64BAEF04F034
:10097000BCEF04F0EAEF04F0000E0F6E1F4A202ACD
:1009800020BECCEF04F0205009E13C0E1F5CD8A043
:10099000CCEF04F0CEEF04F0D4EF04F0000E206EA4
:1009A000000E1F6E214A222A22BEE0EF04F02250E0
:1009B00009E1180E215CD8A0E0EF04F0E2EF04F0AA
:1009C000E6EF04F0000E226E000E216EA1EC06F0A0
:1009D000EAEF04F082B8EFEF04F0F1EF04F027EF54
:1009E00005F0164A172A16041710D8A4FAEF04F0D7
:1009F000FCEF04F002EF05F0010E256E010E276EEC
:100A0000F2EC06F017BE0EEF05F0175009E1330EB9
:100A1000165CD8A00EEF05F010EF05F02BEF05F0F7
:100A200016C005F017C006F0000E086E0A0E076E1D
:100A300049EC06F005500610D8A421EF05F023EF8D
:100A400005F02BEF05F0F2EC06F02BEF05F0000EB1
:100A5000176E000E166E82BA30EF05F032EF05F019
:100A600068EF05F0184A192A18041910D8A43BEFAA
:100A700005F03DEF05F043EF05F0010E256E010E88
:100A8000276E1DEC07F019BE4FEF05F0195009E174
:100A9000330E185CD8A04FEF05F051EF05F06CEF66
:100AA00005F018C005F019C006F0000E086E0A0E19
:100AB000076E49EC06F005500610D8A462EF05F069
:100AC00064EF05F06CEF05F01DEC07F06CEF05F03E
:100AD000000E196E000E186E000E086E0A0E076EDC
:100AE00044EC07F074EF04F007EF00F00600D9CFF4
:100AF00003F0DACF04F0F2A480EF05F082EF05F006
:100B0000E1EF05F0F10ED76E5A0ED66E8B9E8B9CE0
:100B10008B928B902750D8B490EF05F092EF05F0B0
:100B2000CFEF05F08CB097EF05F09BEF05F0016A71
:100B3000012A9CEF05F0016A26501B0FD96EDA6A74
:100B4000DF50FE0B01108C6EB2EF05F08B8ED3EFF1
:100B500005F08B8CD3EF05F08B82D3EF05F08B8003
:100B6000D3EF05F02650016E026A0250000AD8B495
:100B7000BCEF05F0D3EF05F00150000AD8B4A6EFA2
:100B800005F0010AD8B4A9EF05F0030AD8B4ACEF18
:100B900005F0010AD8B4AFEF05F0D3EF05F0000E71
:100BA0008CB0010E8C6E262A030E2664DAEF05F057
:100BB000DCEF05F0DEEF05F0000E266E234A242A56
:100BC000F29404C0DAFF03C0D9FF28921100000E8E
:100BD0000A6E08BEF0EF05F0EEEF05F0F6EF05F057
:100BE000076C081ED8B0082A010E0A6E06BEFDEF7B
:100BF00005F0FBEF05F003EF06F0056C061ED8B01C
:100C0000062A010E0A1A000E0C6E000E0B6E07501B
:100C10000810D8B40EEF06F010EF06F038EF06F02B
:100C2000010E096E18EF06F0D89007360836092A2B
:100C300008AE1DEF06F01FEF06F014EF06F0D89097
:100C40000B360C360750055C08500658D8A02BEF21
:100C500006F02DEF06F032EF06F00750055E085063
:100C6000065A0B80D89008320732092E1FEF06F083
:100C70000A50D8B43EEF06F040EF06F044EF06F01D
:100C80000B6C0C1ED8B00C2A0BC005F00CC006F083
:100C90001200000E0A6E06BE52EF06F050EF06F08C
:100CA00058EF06F0056C061ED8B0062A010E0A6E33
:100CB00008BE5FEF06F05DEF06F063EF06F0076C2D
:100CC000081ED8B0082A07500810D8B46AEF06F0FA
:100CD0006CEF06F090EF06F0010E096E74EF06F06F
:100CE000D89007360836092A08AE79EF06F07BEF70
:100CF00006F070EF06F00750055C08500658D8A0C3
:100D000084EF06F086EF06F08AEF06F00750055EE6
:100D10000850065AD89008320732092E7BEF06F0A9
:100D20000A50D8B496EF06F098EF06F09CEF06F064
:100D3000056C061ED8B0062A05C005F006C006F0F0
:100D4000120021C005F022C006F0000E086E0A0E47
:100D5000076EE7EC05F00550010F0D6E0DC0F6FFB4
:100D6000080EF76E0800F5CF1BF021C005F022C079
:100D700006F0000E086E0A0E076E49EC06F00550EC
:100D8000010F0D6E0DC0F6FF080EF76E0800F5CFCF
:100D90001CF01FC005F020C006F0000E086E0A0E01
:100DA000076EE7EC05F00550010F0D6E0DC0F6FF64
:100DB000080EF76E0800F5CF1DF01FC005F020C02B
:100DC00006F0000E086E0A0E076E49EC06F005509C
:100DD000010F0D6E0DC0F6FF080EF76E0800F5CF7F
:100DE0001EF012001F4A202A20BE00EF07F02050FC
:100DF00009E13C0E1F5CD8A000EF07F002EF07F0FE
:100E000008EF07F0000E206E000E1F6E214A222A06
:100E100022BE14EF07F0225009E1180E215CD8A081
:100E200014EF07F016EF07F01AEF07F0000E226E2E
:100E3000000E216EA1EC06F012001F502010D8A465
:100E400024EF07F026EF07F03EEF07F0000E206ECC
:100E50003B0E1F6E21502210D8A431EF07F033EF64
:100E600007F039EF07F0000E226E170E216E41EFEA
:100E700007F02106D8A0220641EF07F01F06D8A0F0
:100E80002006A1EC06F01200000E0B6E000E0A6E9A
:100E90004EEF07F074EC07F00A4A0B2A0A50075C81
:100EA0000850800A096E0B50800A0958D8B05BEFD1
:100EB00007F05DEF07F04AEF07F01200120EF66E32
:100EC0000F0EF76E000EF86E0900F5CF27F000EE5A
:100ED0001BF00C0EEE6AE806FDE128902892000E49
:100EE000F86E000106EF04F0000E066E000E056EAF
:100EF000054A062A06BE86EF07F05D0E055C030E66
:100F00000658D8A086EF07F088EF07F078EF07F0D3
:030F1000120001CB
:020000040020DA
:08000000FFFFFFFFFFFFFFFF00
:020000040030CA
:0E000000040E1E1EFF8181FF0FC00FE00F4097
:00000001FF
