:0400000007EF00F016
:0A0008001D820FED07F09DEF06F0DA
:1008000000556E6976657273696461642064650081
:1008100054656C65636F6D2D32303236004A616904
:100820006D652043686971756900414443207631E4
:100830002E3000414443203D20004375656E6361C6
:070840000020202020000031
:100848003DEC07F0000E156E000E0D6E320E0C6EAC
:10085800CFEC06F0152A090E156435EF04F037EFD2
:1008680004F028EF04F08C8030EC07F064EC06F01C
:1008780049EC07F0010E0F6E3A0E106E22EC07F0ED
:10088800070E086ED00E076E83EC06F0100E0F6E82
:100898001D0E106E22EC07F0070E086ED00E076EC4
:1008A80083EC06F0010E60EC07F0030E086EE80E0C
:1008B800076E83EC06F0000E166E100E0F6E1D0EFE
:1008C800106E22EC07F0010E086EF40E076E83EC32
:1008D80006F0010E60EC07F0010E086EF40E076ECC
:1008E80083EC06F0162A020E16647DEF04F07FEF03
:1008F80004F061EF04F0010E0F6E3A0E106E22EC58
:1009080007F0070E086ED00E076E83EC06F0010E96
:1009180060EC07F0030E086EE80E076E83EC06F035
:10092800800E60EC07F02A0E0B6E43EC06F0070E03
:10093800086ED00E076E83EC06F0010E60EC07F02F
:10094800030E086EE80E076E83EC06F01950D8B453
:10095800B0EF04F0B2EF04F0B8EF04F0000E196E37
:100968003FEC05F0D9EC05F01BC00CF01CC00DF0F5
:10097800CFEC06F0AAEF04F007EF00F0096E09C00B
:1009880007F0073A0F0E0716010E0716074689509B
:100998000718FD0B0718896E09C007F0050E086EC9
:1009A800D8900732082ED4EF04F0010E0716074638
:1009B800074689500718FB0B0718896E09C007F00E
:1009C800060E086ED8900732082EE6EF04F0010EE6
:1009D800071607460746074689500718F70B0718F2
:1009E800896E076A09AE01D0072A010E0716073A71
:1009F80089500718EF0B0718896E53EC07F009C0E8
:100A080007F0010E0716074689500718FD0B07184F
:100A1800896E09C007F0D8900732010E07160746FD
:100A2800074689500718FB0B0718896E09C007F09D
:100A3800D8900732D8900732010E071607460746A6
:100A4800074689500718F70B0718896E09C007F081
:100A5800D8900732D8900732D8900732010E07167F
:100A6800073A89500718EF0B0718896E53EC07F0FF
:100A7800E5EC06F0120017C00AF018C00BF0030EE0
:100A88000D6EE80E0C6E9FEC05F00A50116E030E09
:100A9800086EE80E076E17C005F018C006F011ECD6
:100AA80006F005C00AF006C00BF0000E0D6E640ECD
:100AB8000C6E9FEC05F00A50126E000E086E640E64
:100AC800076E17C005F018C006F011EC06F005C057
:100AD8000AF006C00BF0000E0D6E0A0E0C6E9FECAD
:100AE80005F00A50136E17C005F018C006F0000E86
:100AF800086E0A0E076E11EC06F00550146E800E93
:100B080060EC07F0330E0B6E43EC06F01150300F1B
:100B18005AEC07F01250300F5AEC07F01350300F10
:100B28005AEC07F01450300F5AEC07F0410E0B6ED8
:100B380043EC06F01200000E0F6E000E0E6E0C5005
:100B48000D10D8B4AAEF05F0ACEF05F0D4EF05F01E
:100B5800010E106EB4EF05F0D8900C360D36102A41
:100B68000DAEB9EF05F0BBEF05F0B0EF05F0D8908A
:100B78000E360F360C500A5C0D500B58D8A0C7EF34
:100B880005F0C9EF05F0CEEF05F00C500A5E0D50E8
:100B98000B5A0E80D8900D320C32102EBBEF05F098
:100BA8000EC00AF00FC00BF01200000E175C010E09
:100BB8001858D8B0E2EF05F0E4EF05F0EAEF05F0D9
:100BC800000E1C6E190E1B6E10EF06F0000E175C5F
:100BD800020E1858D8B0F3EF05F0F5EF05F0FBEF6B
:100BE80005F0000E1C6E320E1B6E10EF06F0000EA4
:100BF800175C030E1858D8B004EF06F006EF06F09D
:100C08000CEF06F0000E1C6E640E1B6E10EF06F063
:100C1800000E1C6EC80E1B6E120007500810D8B4C8
:100C280018EF06F01AEF06F03EEF06F0010E096E17
:100C380022EF06F0D89007360836092A08AE27EFC3
:100C480006F029EF06F01EEF06F00750055C085085
:100C58000658D8A032EF06F034EF06F038EF06F069
:100C68000750055E0850065AD89008320732092EF8
:100C780029EF06F005C005F006C006F01200000EC8
:100C88000E6E000E0D6E54EF06F00B500D240C6E18
:100C98000CC0F6FF0800F5505AEC07F00D4A0E2A72
:100CA8000B500D240C6E0CC0F6FF0800F55000091F
:100CB800D8A461EF06F063EF06F049EF06F01200E2
:100CC800000E086E0F0E076E83EC06F0330E60EC14
:100CD80007F0320E60EC07F0280E60EC07F00C0EFF
:100CE80060EC07F0060E60EC07F0010E60EC07F010
:100CF800000E086E050E076E83EC06F01200000E5B
:100D08000B6E000E0A6E8DEF06F0E5EC06F00A4A4F
:100D18000B2A0A50075C0850800A096E0B50800A9B
:100D28000958D8B09AEF06F09CEF06F089EF06F064
:100D38001200D40EF66E0E0EF76E000EF86E090055
:100D4800F5CF1BF00900F5CF1CF01A6A196A186A6A
:100D5800176A1D901D92000EF86E080EF76E0001BE
:100D680024EF04F0FAEC06F0C282C2B2BEEF06F03D
:100D7800C0EF06F0B9EF06F0C3CF17F0186AC4CF7A
:100D88001AF01A50046E036A17500310176E1850A1
:100D98000410186E12008CA0D4EF06F0D8EF06F0FD
:100DA8000E6A0E2AD9EF06F00E6A8C500E18FE0B4A
:100DB8000E188C6E0CC007F00DC008F083EC06F01E
:100DC8001200000E066E000E056E054A062A06BEC3
:100DD800F7EF06F05D0E055C030E0658D8A0F7EF96
:100DE80006F0F9EF06F0E9EF06F01200000E026EC9
:100DF800000E016E014A022A02BE0CEF07F05D0EDA
:100E0800015C030E0258D8A00CEF07F00EEF07F0B4
:100E1800FEEF06F012000600F2A415EF07F017EF38
:100E280007F020EF07F0DB0ED76E610ED66EB6EC3A
:100E380006F0010E196EF2941D921100010E60EC7D
:100E480007F00FC00BF043EC06F066EC07F010C09B
:100E58000BF043EC06F01200D08EF184F28AF29483
:100E6800F28EF28C870ED56EDB0ED76E610ED66EC3
:100E78001200000E956E9280929292949296929899
:100E8800000E896E000E8C6E12000E0EC16E8E0E54
:100E9800C06EC29AC298C296C294C28012008C8454
:100EA800E5EC06F08C94E5EC06F012000A6E8C82F4
:100EB8000A50C2EC04F012000A6E8C920A50C2EC7E
:0E0EC80004F01200C00E60EC07F012001900DA
:020000040020DA
:08000000FFFFFFFFFFFFFFFF00
:020000040030CA
:0E000000040E1E1EFF8181FF0FC00FE00F4097
:00000001FF
