:040000002DEF0FF0E1
:10080000004F4B21204E65772050617373776F72D4
:10081000643F0052656D6F74652050617373776F2C
:1008200072643A0057726F6E672050617373776F0E
:1008300072642100556E6976657273696461642023
:100840006465004E65772050617373776F72640042
:1008500055534152542076312E30004375656E63F6
:1008600061007365742100000F0EC16E070EB46E37
:10087000000E956E000E8C6E0F0E936E2AEC0EF02D
:10088000800E386E250E396E000E3A6E000E3B6EED
:1008900074EC0DF0000E25EC0FF04A6E010E25EC05
:1008A0000FF04B6E020E25EC0FF04C6E2F0E4A64CB
:1008B0005CEF04F05EEF04F086EF04F03A0E4A605D
:1008C00064EF04F066EF04F086EF04F02F0E4B6443
:1008D0006CEF04F06EEF04F086EF04F03A0E4B601C
:1008E00074EF04F076EF04F086EF04F02F0E4C6402
:1008F0007CEF04F07EEF04F086EF04F0390E4C64D8
:1009000084EF04F086EF04F095EF04F0310E016EF1
:10091000000EC0EC0EF0320E016E010EC0EC0EF0B7
:10092000330E016E020EC0EC0EF0000E506E8C8085
:10093000040E456E0C0E446E340EE82EFED7442E87
:10094000FCD7452EFAD78C90040E456E0C0E446EE3
:10095000340EE82EFED7442EFCD7452EFAD7502A67
:10096000090E5064B6EF04F0B8EF04F097EF04F00E
:100970008C90020E056E010E85EC0EF0340E056EA5
:10098000A4EC0EF0060E056E020E85EC0EF05B0E6A
:10099000056EA4EC0EF07A0E456EC10E446E820E0A
:1009A000E82EFED7442EFCD7452EFAD704EC0FF0E4
:1009B0003D0E456EE10E446E400EE82EFED7442EED
:1009C000FCD7452EFAD7040E056E010E85EC0EF00D
:1009D000500E056EA4EC0EF07A0E456EC10E446EFC
:1009E000820EE82EFED7442EFCD7452EFAD704EC13
:1009F0000FF07A0E456EC10E446E820EE82EFED7C1
:100A0000442EFCD7452EFAD7000E566E000E526EBD
:100A1000000E596E000E546E000E496E000E536E9D
:100A2000010E056E010E85EC0EF0130E056EA4ECA2
:100A30000EF0010E056E020E85EC0EF0010EEEECCE
:100A40000EF09EAA26EF05F028EF05F075EF06F0F0
:100A5000D8EC0EF0586E5828D8A431EF05F033EFDB
:100A600005F037EF05F0000E546E21EF05F04F0E44
:100A70005818D8A43EEF05F040EF05F05EEF05F002
:100A80005650D8A446EF05F048EF05F05EEF05F0AC
:100A9000010E566E000E596E04EC0FF0010E056E3D
:100AA000010E85EC0EF0010E056EA4EC0EF0010EA9
:100AB000056E020E85EC0EF075EF06F0580E581814
:100AC000D8A465EF05F067EF05F09FEF05F05650ED
:100AD000D8A46DEF05F06FEF05F09FEF05F0000E65
:100AE000EEEC0EF004EC0FF0010E056E010E85EC3D
:100AF0000EF0240E056EA4EC0EF07A0E456EC10EBB
:100B0000446E820EE82EFED7442EFCD7452EFAD72F
:100B1000000E596E04EC0FF0010E056E010E85EC0F
:100B20000EF0130E056EA4EC0EF0010E056E020E13
:100B300085EC0EF0010EEEEC0EF075EF06F0530EA4
:100B40005818D8A4A6EF05F0A8EF05F000EF06F0BE
:100B50005604D8A4AEEF05F0B0EF05F000EF06F0B4
:100B6000000E566E000E596E000EEEEC0EF004EC08
:100B70000FF0010E056E010E85EC0EF0430E056EB2
:100B8000A4EC0EF0060E056E020E85EC0EF0620E61
:100B9000056EA4EC0EF0000E516E040E5164D3EFFE
:100BA00005F0D5EF05F0D7EF05F0EBEF05F03D0EC2
:100BB000456EE10E446E400EE82EFED7442EFCD763
:100BC000452EFAD7512A040E5164E9EF05F0EBEFF8
:100BD00005F0D7EF05F004EC0FF0010E056E010EE5
:100BE00085EC0EF0130E056EA4EC0EF0010E056EF2
:100BF000020E85EC0EF0010EEEEC0EF075EF06F035
:100C00002F0E586406EF06F008EF06F075EF06F0B9
:100C10003A0E58600EEF06F010EF06F075EF06F092
:100C200054504D0FD96EDA6A58C0DFFF542A030EB4
:100C30005418D8A41EEF06F020EF06F075EF06F06A
:100C4000000E546E5250D8A428EF06F02AEF06F09A
:100C500057EF06F0000E25EC0FF04D18D8A433EF37
:100C600006F035EF06F052EF06F0010E25EC0FF01E
:100C70004E18D8A43EEF06F040EF06F052EF06F013
:100C8000020E25EC0FF04F18D8A449EF06F04BEFF9
:100C900006F052EF06F04F0E11EC0FF0010E526EFF
:100CA00075EF06F0580E11EC0FF075EF06F05204D8
:100CB000D8A45DEF06F05FEF06F075EF06F04DC0CB
:100CC00001F0000EC0EC0EF04EC001F0010EC0ECC1
:100CD0000EF04FC001F0020EC0EC0EF0530E11ECFE
:100CE0000FF0000E526E75EF06F02FEC0CF0556E03
:100CF0005528D8B47EEF06F080EF06F00AEF07F033
:100D0000020E456ED40E446E850EE82EFED7442E9C
:100D1000FCD7452EFAD700002FEC0CF05518D8A4BC
:100D200094EF06F096EF06F00AEF07F05550D3EC7B
:100D30000DF0576E2F0E5764A0EF06F0A2EF06F0ED
:100D4000C5EF06F03A0E5760A8EF06F0AAEF06F0DE
:100D5000C5EF06F0030E5960B0EF06F0B2EF06F0F3
:100D600000EF07F05950460FD96EDA6A57C0DFFF1F
:100D70005928056E020E85EC0EF0010E016E5750DB
:100D80005DEC0EF0592A00EF07F02A0E5718D8A490
:100D9000CCEF06F0CEEF06F0E8EF06F05950D8B4ED
:100DA000D4EF06F0D6EF06F0E8EF06F05906592822
:100DB000056E020E85EC0EF0010E016E200E5DEC4C
:100DC0000EF05928056E020E85EC0EF000EF07F0CC
:100DD000440E5718D8A4EFEF06F0F1EF06F000EF3D
:100DE00007F0030E5918D8A4F8EF06F0FAEF06F052
:100DF00000EF07F0010E496E000E536E00EF07F092
:100E00002FEC0CF0FF0AD8A408EF07F00AEF07F068
:100E100000EF07F04904D8A410EF07F012EF07F035
:100E200021EF05F05350460FD96EDA6ADF5011EC0E
:100E30000FF0532A020E536420EF07F022EF07F061
:100E400021EF05F0000E496E21EF05F000EF00F0F4
:100E50002B50800B346E2B502B24366E2AAE33EF82
:100E600007F035EF07F036EF07F036803650D8B48C
:100E70003CEF07F03EEF07F053EF07F03628D8A419
:100E800044EF07F046EF07F04EEF07F0000E286E34
:100E9000000E296E000E2A6E000E2B6E2A8E000E9A
:100EA0002B6E5BEF07F0000E286E000E296E000E11
:100EB0002A6E000E2B6E2F50800B356E3450351875
:100EC000D8B465EF07F067EF07F068EF07F0348CF0
:100ED0002F502F24356E2EAE70EF07F072EF07F013
:100EE00073EF07F035803550D8B479EF07F07BEF1A
:100EF00007F090EF07F03528D8A481EF07F083EFD3
:100F000007F08BEF07F0000E2C6E000E2D6E000E1A
:100F10002E6E000E2F6E2E8E000E2F6E98EF07F0A5
:100F2000000E2C6E000E2D6E000E2E6E000E2F6E1B
:100F30003650355CD8B09FEF07F0A1EF07F0C8EF4F
:100F400007F034ACA6EF07F0A8EF07F0AAEF07F020
:100F5000800E341A36C037F035C036F037C035F061
:100F600028C037F02CC028F037C02CF029C037F04B
:100F70002DC029F037C02DF02AC037F02EC02AF03E
:100F800037C02EF02BC037F02FC02BF037C02FF01A
:100F9000000E376E365035C030F0316A305E000ECC
:100FA000315A31BEDDEF07F0315009E11A0E305CE5
:100FB000D8A0DDEF07F0DFEF07F016EF08F02850BC
:100FC00029102A102B10D8A4E8EF07F0EBEF07F058
:100FD000010EECEF07F0000E376E000E286E000ECB
:100FE000296E000E2A6E000E2B6E35C036F01FEFF4
:100FF00008F037A0FEEF07F000EF08F006EF08F06A
:10100000D89037300109376E08EF08F0D8903732A2
:1010100028A00DEF08F00FEF08F010EF08F0378E62
:101020002B342B322A3229322832362A3550365C7C
:10103000D8A01DEF08F01FEF08F0F9EF07F034BC5F
:1010400024EF08F026EF08F066EF08F03650D8A439
:101050002CEF08F02EEF08F038EF08F0000E286EA5
:10106000000E296E000E2A6E000E2B6E87EF09F01F
:101070002C5028262D5029222E502A222F502B2248
:101080002BA045EF08F047EF08F0F3EF08F037A08A
:101090004CEF08F04EEF08F054EF08F0D8903730DE
:1010A0000109376E56EF08F0D890373228A05BEF71
:1010B00008F05DEF08F05EEF08F0378E2B342B322E
:1010C0002A3229322832362AF3EF08F02C50285CD5
:1010D0002D5029582E502A582B50800A306E2F50F0
:1010E000800A3058D8B077EF08F079EF08F0A4EF15
:1010F00008F028502C5C306E29502D58316E2A5043
:101100002E58326E2B502F58336EFF0E3024286E1F
:10111000FF0E3120296EFF0E32202A6EFF0E332083
:101120002B6E800E341A376C3750D8A49AEF08F023
:101130009CEF08F0ACEF08F0010E2826000E2922E3
:101140002A222B22ACEF08F02C50285E2D50295A71
:101150002E502A5A2F502B5A285029102A102B1063
:10116000D8A4B5EF08F0B7EF08F0ECEF08F037506F
:10117000D8A4BDEF08F0BFEF08F0ECEF08F0000EC8
:10118000286E000E296E000E2A6E000E2B6E87EF61
:1011900009F0D890283629362A362B3637AED3EFC9
:1011A00008F0D5EF08F0D6EF08F0288037A0DBEF85
:1011B00008F0DDEF08F0E1EF08F0D8803736E3EF14
:1011C00008F0D89037363650D8B4E9EF08F0EBEF96
:1011D00008F0ECEF08F036062AAEF1EF08F0F3EF76
:1011E00008F0C9EF08F0000E356E37AEFAEF08F0E0
:1011F000FCEF08F014EF09F037C030F07F0E301626
:10120000D8B405EF09F007EF09F00BEF09F0010E74
:10121000356E14EF09F028A010EF09F012EF09F075
:1012200014EF09F007EF09F03550D8B41AEF09F0C0
:101230001CEF09F047EF09F0010E2826000E2922C5
:101240002A222B222BA027EF09F029EF09F047EFE4
:1012500009F028C030F029C031F02AC032F02BC08C
:1012600033F03334333232323132303230C028F05E
:1012700031C029F032C02AF033C02BF03628D8B460
:1012800044EF09F046EF09F047EF09F0362A362817
:10129000D8B44DEF09F04FEF09F057EF09F0365091
:1012A000D8A455EF09F057EF09F069EF09F0000EE7
:1012B000286E000E296E000E2A6E000E2B6E365020
:1012C000D8A465EF09F067EF09F069EF09F0000EA7
:1012D000346E36A06EEF09F070EF09F073EF09F08D
:1012E0002A8E74EF09F02A9ED89036302B6E34AED9
:1012F0007CEF09F07EEF09F07FEF09F02B8E28C01C
:1013000028F029C029F02AC02AF02BC02BF01200A7
:101310001250800B1F6E12501224266E11AE93EFE6
:1013200009F095EF09F096EF09F026802650D8B421
:101330009CEF09F09EEF09F0B3EF09F02628D8A43E
:10134000A4EF09F0A6EF09F0AEEF09F0000E0F6E62
:10135000000E106E000E116E000E126E118E000E39
:10136000126EBBEF09F0000E0F6E000E106E000E35
:10137000116E000E126E1650800B1F1A1650162496
:10138000276E15AEC6EF09F0C8EF09F0C9EF09F0F6
:1013900027802750D8B4CFEF09F0D1EF09F0E6EF5E
:1013A00009F02728D8A4D7EF09F0D9EF09F0E1EF29
:1013B00009F0000E136E000E146E000E156E000E76
:1013C000166E158E000E166EEEEF09F0000E136EFF
:1013D000000E146E000E156E000E166E13501410D3
:1013E00015101610D8A4F7EF09F0F9EF09F011EF76
:1013F0000AF0000E0F6E000E106E000E116E000E41
:10140000126E800E11127F0E12121F5012120FC098
:101410000FF010C010F011C011F012C012F054EF14
:101420000BF02650D8A417EF0AF019EF0AF023EFBB
:101430000AF0000E0F6E000E106E000E116E000E00
:10144000126E54EF0BF0275026C017F0186A175E83
:10145000000E185A7F0E1724206E000E1820216EE1
:101460000FC01BF010C01CF011C01DF012C01EF008
:10147000000E0F6E000E106E000E116E000E126E3A
:10148000000E226E000E236E000E246E000E256EDE
:10149000000E276E84EF0AF02750D8B452EF0AF0FE
:1014A00054EF0AF06BEF0AF0D8901B361C361D364D
:1014B0001E36D8900F3610361136123625AE63EF31
:1014C0000AF065EF0AF066EF0AF00F80D890223636
:1014D00023362436253613501B5C14501C581550E7
:1014E0001D5816501E58D8A078EF0AF07AEF0AF06F
:1014F00083EF0AF0258C13501B5E14501C5A1550B4
:101500001D5A16501E5A272A190E27648AEF0AF010
:101510008CEF0AF04CEF0AF01B501C101D101E102F
:10152000D8B495EF0AF097EF0AF0AFEF0AF02280F7
:10153000AFEF0AF0D8900F3610361136123625AEBE
:10154000A4EF0AF0A6EF0AF0A7EF0AF00F80D890F8
:1015500022362336243625362006D8A0210611AEA1
:10156000B4EF0AF0B6EF0AF09AEF0AF0000E276E19
:1015700025AEBDEF0AF0BFEF0AF0E3EF0AF0FF0E71
:101580002214176EFF0E2314186EFF0E2414196E0A
:101590007F0E25141A6E1750181019101A10D8B48F
:1015A000D4EF0AF0D6EF0AF0DAEF0AF0010E276E58
:1015B000E3EF0AF00FA0DFEF0AF0E1EF0AF0E3EF4C
:1015C0000AF0D6EF0AF02750D8B4E9EF0AF0EBEFB3
:1015D0000AF00FEF0BF0010E0F26000E1022112261
:1015E000122212A0F6EF0AF0F8EF0AF00FEF0BF05C
:1015F0000FC017F010C018F011C019F012C01AF087
:101600001A341A3219321832173217C00FF018C0B4
:1016100010F019C011F01AC012F0204A212A21BE80
:101620001AEF0BF0215008E12028D8A01AEF0BF098
:101630001CEF0BF027EF0BF0000E216E2068000E60
:101640000F6E000E106E000E116E000E126E21BE97
:1016500034EF0BF0215006E12004D8B032EF0BF04C
:1016600034EF0BF042EF0BF0000E216E000E206EF7
:10167000000E0F6E000E106E000E116E000E126E38
:10168000000E1F6E20C026F026A049EF0BF04BEF96
:101690000BF04EEF0BF0118E4FEF0BF0119ED89028
:1016A0002630126E05EF0AF01200096E0950D8B408
:1016B0005CEF0BF05EEF0BF080EF0BF004BE65EF1C
:1016C0000BF063EF0BF080EF0BF001C005F002C0F0
:1016D00006F003C007F004C008F0051E061E071E32
:1016E000081E052A000E06220722082205C00BF05C
:1016F00006C00CF007C00DF008C00EF088EF0BF02C
:1017000001C00BF002C00CF003C00DF004C00EF0DD
:101710000150021003100410D8A491EF0BF093EFC6
:101720000BF09DEF0BF0000E016E000E026E000E2E
:10173000036E000E046E2EEF0CF0960E0A6EA7EFED
:101740000BF00A2AD8900E320D320C320B32000EFA
:101750000B14056E000E0C14066E000E0D14076EB1
:10176000FE0E0E14086E0550061007100810D8A4BF
:10177000BCEF0BF0BEEF0BF0A1EF0BF0CCEF0BF0DA
:101780000A2A010E0B26000E0C220D220E22D890E2
:101790000E320D320C320B32000E0B14056E000EA1
:1017A0000C14066E000E0D14076EFF0E0E14086E5C
:1017B0000550061007100810D8A4E1EF0BF0E3EF76
:1017C0000BF0C0EF0BF0EBEF0BF00A06D8900B36E6
:1017D0000C360D360E360DBEF0EF0BF0F2EF0BF0BF
:1017E000FAEF0BF0020E0A60F8EF0BF0FAEF0BF0D5
:1017F000E5EF0BF00AB0FFEF0BF001EF0CF002EF9A
:101800000CF00D9ED8900A320AC005F0066A076AED
:10181000086A05C008F0076A066A056A05500B12D7
:1018200006500C1207500D1208500E120950D8B471
:101830001CEF0CF01EEF0CF026EF0CF004BE25EFB1
:101840000CF023EF0CF026EF0CF00E8E0BC001F025
:101850000CC002F00DC003F00EC004F01200700EB8
:101860008A6E140EE82EFED742EF0CF0010EF0EF58
:101870000CF0020EF0EF0CF0030EF0EF0CF00A0E7D
:10188000F0EF0CF08150016E026A0250000AD8B4E9
:101890004CEF0CF05FEF0CF00150770AD8B436EF44
:1018A0000CF00C0AD8B439EF0CF0060AD8B43CEFAF
:1018B0000CF0030AD8B43FEF0CF05FEF0CF0B00E61
:1018C0008A6E140EE82EFED772EF0CF0040EF0EFC5
:1018D0000CF0050EF0EF0CF0060EF0EF0CF00B0E16
:1018E000F0EF0CF08150016E026A0250000AD8B489
:1018F0007CEF0CF08FEF0CF00150B70AD8B466EF14
:101900000CF00C0AD8B469EF0CF0060AD8B46CEFEE
:101910000CF0030AD8B46FEF0CF08FEF0CF0D00E80
:101920008A6E140EE82EFED7A2EF0CF0070EF0EF31
:101930000CF0080EF0EF0CF0090EF0EF0CF00C0EAE
:10194000F0EF0CF08150016E026A0250000AD8B428
:10195000ACEF0CF0BFEF0CF00150D70AD8B496EF03
:101960000CF00C0AD8B499EF0CF0060AD8B49CEF2E
:101970000CF0030AD8B49FEF0CF0BFEF0CF0E00EB0
:101980008A6E140EE82EFED7D2EF0CF00E0EF0EF9A
:101990000CF0000EF0EF0CF00F0EF0EF0CF00D0E4F
:1019A000F0EF0CF08150016E026A0250000AD8B4C8
:1019B000DCEF0CF0EFEF0CF00150E70AD8B4C6EF03
:1019C0000CF00C0AD8B4C9EF0CF0060AD8B4CCEF6E
:1019D0000CF0030AD8B4CFEF0CF0EFEF0CF0FF0ED1
:1019E0001200033404340A6E0A50D8A4FAEF0CF043
:1019F000FCEF0CF006EF0DF0000E016E000E026E13
:101A0000000E036E000E046E73EF0DF001C005F0C2
:101A100002C006F003C007F004C008F0200E16EF65
:101A20000DF0D8900832073206320532E82E11EF59
:101A30000DF00550096E038EFF0E0116FF0E021603
:101A4000FF0E0316000E0416960E0A5E0ABE2DEF58
:101A50000DF02BEF0DF043EF0DF00A50800A970FB9
:101A6000D8B035EF0DF037EF0DF039EF0DF0FCEF9A
:101A70000CF0D89004320332023201320A3E39EFC0
:101A80000DF05BEF0DF01F0E0A6449EF0DF04BEF08
:101A90000DF053EF0DF0FCEF0CF0D890013602364C
:101AA000033604360A060A50D8A459EF0DF05BEF4E
:101AB0000DF04DEF0DF00950D8B461EF0DF063EF6C
:101AC0000DF06BEF0DF0041E031E021E016C000EE4
:101AD00002220322042201C001F002C002F003C06E
:101AE00003F004C004F01200948C948E38C03CF0D3
:101AF00039C03DF03AC03EF03BC03FF0060ED890F2
:101B00003C363D363E363F36E82E7FEF0DF03CC08A
:101B100001F03DC002F03EC003F03FC004F0010EF2
:101B200055EC0BF001C013F002C014F003C015F027
:101B300004C016F0000E0F6E1B0E106E370E116EE5
:101B40004C0E126E88EC09F00FC028F010C029F07E
:101B500011C02AF012C02BF0000E2C6E000E2D6E5C
:101B6000800E2E6EBF0E2F6E28EC07F028C040F0BE
:101B700029C041F02AC042F02BC043F040C001F020
:101B800041C002F042C003F043C004F0F1EC0CF09D
:101B90000150AF6EAC9EAC9CAC8AAC98AC94B8963D
:101BA000900EAB6E1200016E0A0E0160DAEF0DF0BE
:101BB000DCEF0DF0E0EF0DF00150300F29EF0EF0EB
:101BC0000A0E0118D8A4E7EF0DF0E9EF0DF0ECEFE5
:101BD0000DF0410E29EF0EF00B0E0118D8A4F3EF13
:101BE0000DF0F5EF0DF0F8EF0DF0420E29EF0EF0CD
:101BF0000C0E0118D8A4FFEF0DF001EF0EF004EF6A
:101C00000EF0430E29EF0EF00D0E0118D8A40BEFC5
:101C10000EF00DEF0EF010EF0EF0440E29EF0EF067
:101C20000E0E0118D8A417EF0EF019EF0EF01CEFEE
:101C30000EF02A0E29EF0EF00F0E0118D8A423EF94
:101C40000EF025EF0EF028EF0EF0230E29EF0EF028
:101C50003F0E1200020E066E380E056EAD0EE82E17
:101C6000FED7052EFCD7062EFAD700008C92000E68
:101C7000016E330E5DEC0EF0000E016E320E5DEC67
:101C80000EF0000E016E280E5DEC0EF0000E016EDF
:101C9000060E5DEC0EF0000E016E0C0E5DEC0EF00B
:101CA000000E016E010E5DEC0EF0200E056E2A0E88
:101CB000E82EFED7052EFCD71200036E8C50010BC8
:101CC000046E01B002D08C9201D08C820350F00BD4
:101CD00004108C6E01B002D08C9201D08C821CEC6E
:101CE0000FF00338F00BF00B04108C6E01B002D033
:101CF0008C9201D08C821CEC0FF0200E026E2A0E0A
:101D0000E82EFED7022EFCD71200066E0604D8B4C9
:101D10008CEF0EF08EEF0EF096EF0EF0BF0E052456
:101D2000076E086A000E08229CEF0EF07F0E052455
:101D3000076E086A000E082207C009F0000E016E47
:101D400009505DEC0EF01200B1EF0EF0010E016EC5
:101D500005C0F6FF080EF76E0800F5505DEC0EF0BA
:101D6000052A05C0F6FF080EF76E0800F5500009B9
:101D7000D8A4BDEF0EF0BFEF0EF0A6EF0EF01200EC
:101D8000026E02C0A9FF01C0A8FFA69EA69CA68461
:101D9000F29E550EA76EAA0EA76EA682A6B2D3EF2C
:101DA0000EF0D5EF0EF0CEEF0EF0F28EA6941200EC
:101DB0009EAADDEF0EF0DFEF0EF0D8EF0EF0ABA233
:101DC000E4EF0EF0E6EF0EF0ECEF0EF0AB98000053
:101DD000AB88FF0EEDEF0EF0AE501200056E055011
:101DE000D8B4F5EF0EF0F7EF0EF0FEEF0EF0000EA8
:101DF000016E0F0E5DEC0EF003EF0FF0000E016EA2
:101E00000C0E5DEC0EF01200000E016E010E5DEC8A
:101E10000EF0200E056E2A0EE82EFED7052EFCD7FA
:101E20001200016E01C0ADFFACA219EF0FF01BEF65
:101E30000FF014EF0FF012008C84080EE82EFED77E
:101E40008C94C80EE82EFED71200016E01C0A9FFC7
:101E5000A69EA69CA680A8501200000EF86E000157
:041E600034EF04F067
:020000040020DA
:08000000FFFFFFFFFFFFFFFF00
:020000040030CA
:0E000000040E1E1EFF8181FF0FC00FE00F4097
:00000001FF
