:020000040000FA
:0400000010EF00F00D
:020004000000FA
:04000800A9EF00F06C
:100020009490956A94908C6A6D966F86D59ED59CB7
:10003000D59AD596D584D582D580F28EF28CF28A67
:10004000C60E006E150E016E140E046E640E026E66
:10005000D90ED76EDA0ED66ED58E8B80320E8BEC23
:1000600000F08B90320E8BEC00F0042E2DEF00F0A0
:100070008B808C6A076A8C0E066E020E086E82B840
:100080003FEF00F092EC00F082A844EF00F0030E86
:100090008C6E078007B239EF00F0640E036E9AECA5
:1000A00000F082AA70EF00F0032E4FEF00F00590F1
:1000B0008C468CAE4AEF00F007B239EF00F0640EC8
:1000C000036E9AEC00F082AA70EF00F0032E61EF4D
:1000D00000F005808C428CA05CEF00F04AEF00F04D
:1000E00092EC00F007B239EF00F082AA72EF00F054
:1000F00007B239EF00F082B878EF00F092EC00F030
:1001000007B239EF00F082A880EF00F005B05CEF95
:1001100000F04AEF00F0036E9AEC00F0032E8CEF33
:1001200000F012009AEC00F0022E92EF00F0640E44
:10013000026E1200012E9FEF00F0A6EF00F0002EDD
:100140009FEF00F0C60E006E9AEF00F0150E016EE4
:1001500012008B70F294D90ED76EDA0ED66E07A00D
:10016000BCEF00F0082EBCEF00F0020E086E062E69
:0A017000BCEF00F0079007821000BA
:00000001FF
