:020000040000FA
:0400000010EF00F00D
:020004000000FA
:10002000956A6D966F8694908C6A8B90C60E006E62
:10003000150E016E140E046E640E026E8B80320E6D
:100040005EEC00F08B90320E5EEC00F0042E1EEFA2
:1000500000F08B8082B82AEF00F065EC00F082A8F7
:100060002FEF00F0030E8C6E640E5EEC00F082AA9F
:100070004CEF00F005908C468CAE34EF00F0640E2F
:100080005EEC00F082AA4CEF00F005808C428CA060
:100090003FEF00F034EF00F065EC00F082AA4EEF85
:1000A00000F082B851EF00F065EC00F082A856EF46
:1000B00000F005B03FEF00F034EF00F0036E6DECA0
:1000C00000F0032E5FEF00F012006DEC00F0022E46
:1000D00065EF00F0640E026E1200012E72EF00F068
:1000E00079EF00F0002E72EF00F0C60E006E6DEF9B
:0800F00000F0150E016E120074
:00000001FF
