:020000040000FA
:0400000010EF00F00D
:020004000000FA
:10002000956A6D966F8694908C6A8B90C60E006E62
:10003000150E016E140E066E000E076E8B80320ECA
:10004000BDEC00F08B90320EBDEC00F0062E1EEFE2
:1000500000F08B8082B82AEF00F0C4EC00F082A898
:100060002FEF00F0C4EC00F0010E075CD8B458ECA0
:1000700000F01200020E075CD8B474EC00F012001D
:10008000030E075CD8B48EEC00F01200072A040EB1
:10009000075CD8B44EEF00F0010E076E34EC00F0B0
:1000A00082AAB4EF00F082A82FEF00F04EEF00F02C
:1000B000800E046E010E056E82AA120082A8120044
:1000C000045005108C6E320EBDEC00F00442054663
:1000D00004A06DEF00F070EF00F004A65CEF00F0FC
:1000E000044205465CEF00F0010E8C6E320EBDEC52
:1000F00000F082AA120082A812008C468CAE76EF25
:1001000000F0320EBDEC00F082AA120082A81200AC
:100110008C428CA081EF00F074EF00F0030E086EAB
:100120000F0E8C6E320EBDEC00F082AA120082A877
:1001300012008C6A320EBDEC00F0082E90EF00F039
:10014000030E086EF00E8C6E320EBDEC00F082AA2B
:10015000120082A812008C6A320EBDEC00F0082E4C
:10016000A2EF00F08EEF00F08C6A076A82AAB6EF69
:1001700000F0C4EC00F02AEF00F0036ECCEC00F0CD
:10018000032EBEEF00F01200CCEC00F0022EC4EF04
:1001900000F0640E026E1200012ED1EF00F0D8EFD5
:1001A00000F0002ED1EF00F0C60E006ECCEF00F094
:0601B000150E016E1200A5
:00000001FF
