:020000040000FA
:0400000010EF00F00D
:020004000000FA
:10002000956A6D966F8694908C6A8B90C60E006E62
:10003000150E016E140E036E8B80320EBCEC00F0B8
:100040008B90320EBCEC00F0032E1CEF00F08B8086
:10005000010E046E800E066E010E076E8C6A82B869
:100060002FEF00F082A832EF00F00450010AD8B45C
:1000700054EF00F00450020AD8B46EEF00F08CEF99
:1000800000F082A841EF00F0042A040E0418D8B44E
:1000900051EC00F08C6A800E066E010E076E35EF93
:1000A00000F0010E046E120082AAB6EF00F082A8E2
:1000B00041EF00F0065007108C6E320EBCEC00F0E1
:1000C0000642074606A067EF00F06AEF00F006A6BA
:1000D00054EF00F00642074654EF00F0010E8C6E1C
:1000E000320EBCEC00F082AAB6EF00F082A841EF1D
:1000F00000F08C468CAE70EF00F0320EBCEC00F0DD
:1001000082AAB6EF00F082A841EF00F08C428CA0EA
:100110007DEF00F06EEF00F0030E056E0F0E8C6E9B
:10012000320EBCEC00F082AAB6EF00F082A841EFDC
:1001300000F08C6A320EBCEC00F0052E8EEF00F061
:10014000030E056EF00E8C6E320EBCEC00F082AA2F
:10015000B6EF00F082A841EF00F08C6A320EBCECE2
:1001600000F0052EA2EF00F08CEF00F08C6A82AA5E
:10017000B7EF00F028EF00F0026EC3EC00F0022EA3
:10018000BDEF00F01200012EC8EF00F0CFEF00F03D
:10019000002EC8EF00F0C60E006EC3EF00F0150E83
:0401A000016E1200DA
:00000001FF
