:020000040000FA
:0400000010EF00F00D
:020004000000FA
:04000800A7EF00F06E
:100020009490956A94908C6A6D966F86D59ED59CB7
:10003000D59AD596D584D582D580F28EF28CF28A67
:10004000C60E006E150E016E140E046E640E026E66
:10005000D90ED76EDA0ED66ED58E8B80320E89EC25
:1000600000F08B90320E89EC00F0042E2DEF00F0A2
:100070008B808C6A076A1E0E066E82B83DEF00F018
:1000800090EC00F082A842EF00F0030E8C6E078027
:1000900007B239EF00F0640E036E98EC00F082AA0C
:1000A0006EEF00F0032E4DEF00F005908C468CAE05
:1000B00048EF00F007B239EF00F0640E036E98ECE1
:1000C00000F082AA6EEF00F0032E5FEF00F00580D3
:1000D0008C428CA05AEF00F048EF00F090EC00F05A
:1000E00007B239EF00F082AA70EF00F007B239EFE3
:1000F00000F082B876EF00F090EC00F007B239EF34
:1001000000F082A87EEF00F005B05AEF00F048EF53
:1001100000F0036E98EC00F0032E8AEF00F012005E
:1001200098EC00F0022E90EF00F0640E026E1200C8
:10013000012E9DEF00F0A4EF00F0002E9DEF00F0E7
:10014000C60E006E98EF00F0150E016E12008B7057
:10015000F294D90ED76EDA0ED66E07A0B5EF00F086
:0C016000062EB5EF00F00790078210009B
:00000001FF
