:040000005BEF04F0BE
:1008000000000F0EC16E000E956E000E8C6E000E75
:10081000096E8CA00EEF04F012EF04F0086A082AAB
:1008200013EF04F0086A8C500818FE0B08188C6E41
:10083000000E046E320E036E2CEC04F0092A090E31
:10084000096425EF04F027EF04F009EF04F08C8031
:1008500028EF04F000EF00F0000E076E000E066EA9
:1008600036EF04F046EC04F0064A072A0650035C13
:100870000450800A056E0750800A0558D8B043EF2F
:1008800004F045EF04F032EF04F01200000E026EA7
:10089000000E016E014A022A02BE58EF04F05D0EFE
:1008A000015C030E0258D8A058EF04F05AEF04F090
:0C08B0004AEF04F01200000101EF04F018
:020000040020DA
:08000000FFFFFFFFFFFFFFFF00
:020000040030CA
:0E000000040E1E1EFF8181FF0FC00FE00F4097
:00000001FF
