:0400000007EF00F016
:0A0008003882EBED08F08FEF0AF0EC
:1008000000FC60DAF266B6BEE0FEF62A8E0A9E1C96
:100810000000000E1C6E000E116E000E1A6E000E0F
:100820001B6E000E126E6D966F860F0EC16E000E5F
:10083000956E94909492949C949E0F0E936EF00EED
:100840008A6E000E8C6E8B9E8B9C8B928B909290FE
:100850008990F10ED76E5A0ED66E020ED56E29EC27
:100860000BF0000E186E000E176E8CA03AEF04F01D
:100870003EEF04F0106A102A3FEF04F0106A8C502B
:100880001018FE0B10188C6E000E136E000E146EF6
:10089000000E156E000E166E010E1326000E1422A9
:1008A0001522162216BE61EF04F0165015100BE14A
:1008B000F80E135CA70E1458D8A061EF04F063EF94
:1008C00004F04CEF04F0174A182A18BE71EF04F038
:1008D000185009E10A0E175CD8A071EF04F073EF0D
:1008E00004F035EF04F08C807CEC08F0295009E12D
:1008F000C80E285CD8A07FEF04F081EF04F057EF1A
:1009000005F0C80E285E000E295A1C50D8B48BEF93
:1009100004F08EEF04F0010E8FEF04F0000E1C6E59
:100920002E50D8A496EF04F098EF04F099EF04F05D
:100930008C903750D8A49FEF04F0A1EF04F0B9EFEA
:1009400004F03250D8B4A7EF04F0A9EF04F0ADEFF3
:1009500004F07CEC08F057EF05F01C50D8A4B3EF7E
:1009600004F0B5EF04F0A9EF04F0EDEC0AF057EF56
:1009700005F01C50D8A4BFEF04F0C1EF04F0C2EFA3
:1009800004F0312A3B0E3164C8EF04F0CAEF04F0E2
:10099000E2EF04F0000E316E332A3B0E3364D3EFE6
:1009A00004F0D5EF04F0D8EF04F0000E336E342AD3
:1009B000170E3464DEEF04F0E0EF04F0E2EF04F031
:1009C000000E346E2E50D8B4E8EF04F0EAEF04F0D5
:1009D00035EF05F01C50D8A4F0EF04F0F2EF04F06E
:1009E00035EF05F02B50D8B4F8EF04F0FAEF04F02F
:1009F000FEEF04F031EC0BF035EF05F02F50D8A4EA
:100A000004EF05F006EF05F027EF05F03050D8A40D
:100A10000CEF05F00EEF05F027EF05F0C1EC0AF042
:100A2000010E376E000E196E17EC0BF0030E086EF8
:100A3000E80E076E75EC0AF0192A020E196423EF0E
:100A400005F025EF05F014EF05F035EF05F0305017
:100A5000D8A42DEF05F02FEF05F034EF05F02F06A9
:100A60003B0E306E35EF05F030063650D8B43BEF14
:100A700005F03DEF05F0A9EF04F02E50D8A443EFA8
:100A800005F045EF05F0A9EF04F02D50D8A44BEF89
:100A900005F04DEF05F0A9EF04F01C50D8A453EF7A
:100AA00005F055EF05F0A9EF04F0B5EF04F08FEC79
:100AB00007F01D6E2C50D8B460EF05F062EF05F022
:100AC0006CEF05F00E0E1D18D8B469EF05F06BEF52
:100AD00005F06CEF05F01D680A0E1D18D8A473EF21
:100AE00005F075EF05F0A8EF05F02E50D8A47BEFC8
:100AF00005F07DEF05F0A8EF05F0112A1104D8A448
:100B000084EF05F086EF05F0AAEF05F017EC0BF087
:100B1000010E326E7CEC08F0070E086ED00E076EE8
:100B200075EC0AF0000E326EC1EC0AF03650D8B403
:100B30009CEF05F09EEF05F0A2EF05F0FEEC0AF049
:100B4000A4EF05F020EC0BF07CEC08F0AAEF05F028
:100B5000000E116E0A0E1D60B0EF05F0B2EF05F049
:100B6000DBEF05F03750D8B4B8EF05F0BAEF05F079
:100B7000DBEF05F02E50D8A4C0EF05F0C2EF05F072
:100B8000DBEF05F01D500DEC0BF0010E2D6E1E502D
:100B90000A0DF3501F242F6E20500A0DF35021240C
:100BA000306E17EC0BF07CEC08F0000E086EFA0EBD
:100BB000076E75EC0AF00B0E1D18D8A4E2EF05F0D5
:100BC000E4EF05F017EF06F03750D8A4EAEF05F090
:100BD000ECEF05F017EF06F01A2A1A04D8A4F3EF89
:100BE00005F0F5EF05F0F9EF05F017EC0BF0A8ECC8
:100BF0000AF0140E1A64FFEF05F001EF06F019EF8A
:100C000006F01AC005F0066A000E086E030E076EA5
:100C1000B2EC09F005500610D8A411EF06F013EF5E
:100C200006F019EF06F0A8EC0AF019EF06F0000E36
:100C30001A6E0C0E1D18D8A420EF06F022EF06F055
:100C400055EF06F03750D8A428EF06F02AEF06F04B
:100C500055EF06F01B2A1B04D8A431EF06F033EF42
:100C600006F037EF06F017EC0BF058EC0AF0140E14
:100C70001B643DEF06F03FEF06F057EF06F01BC098
:100C800005F0066A000E086E030E076EB2EC09F05E
:100C900005500610D8A44FEF06F051EF06F057EFBD
:100CA00006F058EC0AF057EF06F0000E1B6E0D0E22
:100CB0001D18D8A45EEF06F060EF06F0CBEF06F04B
:100CC000122A1204D8A467EF06F069EF06F0CDEF00
:100CD00006F017EC0BF03750D8A471EF06F073EF65
:100CE00006F087EF06F02E50D8A479EF06F07BEFE0
:100CF00006F087EF06F0010E376E000E316E000E23
:100D0000296E000E286E000E366EC7EF06F03750C3
:100D1000D8B48DEF06F08FEF06F0B0EF06F02E504E
:100D2000D8A495EF06F097EF06F0B0EF06F0010EAD
:100D30002E6E000E2D6E2F50D8A4A1EF06F0A3EF5B
:100D400006F0ADEF06F03050D8A4A9EF06F0ABEFF7
:100D500006F0ADEF06F01E0E306E8C80C7EF06F089
:100D60002E50D8B4B6EF06F0B8EF06F0C7EF06F095
:100D70001E0E30263B0E3064C0EF06F0C2EF06F0C8
:100D8000C7EF06F03C0E305E2F2AC7EF06F07CEC72
:100D900008F0CDEF06F0000E126E0E0E1D18D8A44E
:100DA000D4EF06F0D6EF06F047EF07F0264A272AE1
:100DB000275009E12B0E265CD8A0E1EF06F0E3EF07
:100DC00006F01EEF07F0000E276E000E266E2E5066
:100DD000D8A4EDEF06F0EFEF06F01EEF07F02D5070
:100DE000D8A4F5EF06F0F7EF06F01EEF07F02C5051
:100DF000D8B4FDEF06F000EF07F0010E01EF07F0A9
:100E0000000E2C6E2C50D8A408EF07F00AEF07F064
:100E10000CEF07F0C1EC0AF07CEC08F08980010EC1
:100E2000086E2C0E076E75EC0AF08990000E2A6E83
:100E3000000E086E050E076E75EC0AF026042710EA
:100E4000D8A425EF07F027EF07F04BEF07F02C5061
:100E5000D8A42DEF07F02FEF07F04BEF07F017ECBA
:100E60000BF02E50D8B437EF07F039EF07F03FEF13
:100E700007F031EC0BF0010E2A6E43EF07F0C1ECE6
:100E80000AF0000E2A6E7CEC08F04BEF07F0000E23
:100E9000276E000E266E0F0E1D18D8A452EF07F015
:100EA00054EF07F085EF07F02C50D8A45AEF07F065
:100EB0005CEF07F085EF07F017EC0BF02B50D8B480
:100EC00064EF07F067EF07F0010E68EF07F0000E20
:100ED0002B6E2B50D8B46FEF07F071EF07F07DEF5A
:100EE00007F031EC0BF017EC0BF0000E086E640EFF
:100EF000076E75EC0AF017EC0BF07CEC08F0010EB5
:100F0000086E2C0E076E75EC0AF0000E086E050ECA
:100F1000076E75EC0AF076EF04F007EF00F00E684C
:100F2000700E8A6E000E086E050E076E75EC0AF0E4
:100F3000AAEF07F0010E0E6EC7EF07F0020E0E6E5D
:100F4000C7EF07F0030E0E6EC7EF07F00A0E0E6E26
:100F5000C7EF07F081500C6E0D6A0D50000AD8B42F
:100F6000B4EF07F0C7EF07F00C50770AD8B49AEF48
:100F700007F00C0AD8B49EEF07F0060AD8B4A2EF27
:100F800007F0030AD8B4A6EF07F0C7EF07F0B00EDA
:100F90008A6E000E086E050E076E75EC0AF0E1EF22
:100FA00007F0040E0E6EFEEF07F0050E0E6EFEEF5C
:100FB00007F0060E0E6EFEEF07F00B0E0E6EFEEF44
:100FC00007F081500C6E0D6A0D50000AD8B4EBEF9B
:100FD00007F0FEEF07F00C50B70AD8B4D1EF07F0D6
:100FE0000C0AD8B4D5EF07F0060AD8B4D9EF07F049
:100FF000030AD8B4DDEF07F0FEEF07F0D00E8A6EDB
:10100000000E086E050E076E75EC0AF018EF08F07A
:10101000070E0E6E35EF08F0080E0E6E35EF08F075
:10102000090E0E6E35EF08F00C0E0E6E35EF08F05F
:1010300081500C6E0D6A0D50000AD8B422EF08F0F2
:1010400035EF08F00C50D70AD8B408EF08F00C0AB6
:10105000D8B40CEF08F0060AD8B410EF08F0030A71
:10106000D8B414EF08F035EF08F0E00E8A6E000EE9
:10107000086E050E076E75EC0AF04FEF08F00E0EC5
:101080000E6E6CEF08F0000E0E6E6CEF08F00F0E97
:101090000E6E6CEF08F00D0E0E6E6CEF08F08150C6
:1010A0000C6E0D6A0D50000AD8B459EF08F06CEFC1
:1010B00008F00C50E70AD8B43FEF08F00C0AD8B497
:1010C00043EF08F0060AD8B447EF08F0030AD8B493
:1010D0004BEF08F06CEF08F00E28D8B472EF08F070
:1010E00074EF08F07AEF08F0000E086E320E076E0B
:1010F00075EC0AF00E5012002C50D8B482EF08F0B4
:1011000084EF08F08EEF08F09C0E226E900E236E96
:10111000900E246EF00E256EE0EF08F03250D8B439
:1011200094EF08F096EF08F0B4EF08F00D0EF66EAD
:10113000080EF76E0800F5CF22F00E0EF66E080EC0
:10114000F76E0800F5CF23F00F0EF66E080EF76E5F
:101150000800F5CF24F0100EF66E080EF76E0800AA
:10116000F5CF25F0E0EF08F02E50D8A4BAEF08F044
:10117000BCEF08F0D4EF08F02D50D8A4C2EF08F06F
:10118000C4EF08F0D4EF08F02F50D8A4CAEF08F04D
:10119000CCEF08F0D4EF08F03050D8B4D2EF08F01C
:1011A000D4EF08F0DBEF08F030C00DF02F500AEC60
:1011B0000AF0E0EF08F033C00DF034500AEC0AF00A
:1011C0002B50D8B4E6EF08F0E8EF08F0EAEF08F0AB
:1011D0009C0E226E12000600D9CF03F0DACF04F085
:1011E000F2A4F5EF08F0F7EF08F04AEF09F0F10E7E
:1011F000D76E5A0ED66E8B9E8B9C8B928B908CB03A
:1012000004EF09F008EF09F0016A012A09EF09F07B
:10121000016A3550220FD96EDA6ADF50FE0B0110D9
:101220008C6E1FEF09F08B8E3CEF09F08B8C3CEF3E
:1012300009F08B823CEF09F08B803CEF09F03550D0
:10124000016E026A0250000AD8B429EF09F03CEF9F
:1012500009F00150000AD8B413EF09F0010AD8B41C
:1012600016EF09F0030AD8B419EF09F0010AD8B44F
:101270001CEF09F03CEF09F0352A030E356443EF0B
:1012800009F045EF09F047EF09F0000E356E284AE6
:10129000292AF29404C0DAFF03C0D9FF3892110062
:1012A000000E0A6E08BE59EF09F057EF09F05FEF24
:1012B00009F0076C081ED8B0082A010E0A6E06BE97
:1012C00066EF09F064EF09F06CEF09F0056C061E9B
:1012D000D8B0062A010E0A1A000E0C6E000E0B6E14
:1012E00007500810D8B477EF09F079EF09F0A1EFB3
:1012F00009F0010E096E81EF09F0D8900736083623
:10130000092A08AE86EF09F088EF09F07DEF09F0B1
:10131000D8900B360C360750055C08500658D8A0FC
:1013200094EF09F096EF09F09BEF09F00750055E86
:101330000850065A0B80D89008320732092E88EFE1
:1013400009F00A50D8B4A7EF09F0A9EF09F0ADEF02
:1013500009F00B6C0C1ED8B00C2A0BC005F00CC0A9
:1013600006F01200000E0A6E06BEBBEF09F0B9EFE0
:1013700009F0C1EF09F0056C061ED8B0062A010E6F
:101380000A6E08BEC8EF09F0C6EF09F0CCEF09F00D
:10139000076C081ED8B0082A07500810D8B4D3EF3D
:1013A00009F0D5EF09F0F9EF09F0010E096EDDEF54
:1013B00009F0D89007360836092A08AEE2EF09F09E
:1013C000E4EF09F0D9EF09F00750055C0850065822
:1013D000D8A0EDEF09F0EFEF09F0F3EF09F00750B7
:1013E000055E0850065AD89008320732092EE4EFFD
:1013F00009F00A50D8B4FFEF09F001EF0AF005EF49
:101400000AF0056C061ED8B0062A05C005F006C015
:1014100006F012000F6E0FC005F0066A000E086E8F
:101420000A0E076E50EC09F00550010F0E6E0EC04B
:10143000F6FF080EF76E0800F5CF22F00FC005F09A
:10144000066A000E086E0A0E076EB2EC09F005502F
:10145000010F0E6E0EC0F6FF080EF76E0800F5CFF6
:1014600023F00DC005F0066A000E086E0A0E076E26
:1014700050EC09F00550010F0E6E0EC0F6FF080E7D
:10148000F76E0800F5CF24F00DC005F0066A000ED7
:10149000086E0A0E076EB2EC09F00550010F0E6ED1
:1014A0000EC0F6FF080EF76E0800F5CF25F012000B
:1014B0003350D8A45EEF0AF060EF0AF071EF0AF043
:1014C0003B0E336E3450D8A468EF0AF06AEF0AF08E
:1014D0006EEF0AF0170E346E72EF0AF0340672EFF8
:1014E0000AF033067CEC08F01200000E0B6E000EC2
:1014F0000A6E7FEF0AF0D8EC0AF00A4A0B2A0A506B
:10150000075C0850800A096E0B50800A0958D8B051
:101510008CEF0AF08EEF0AF07BEF0AF012006E0EED
:10152000F66E160EF76E000EF86E0900F5CF36F067
:101530000900F5CF37F000EE1EF0180EEE6AE8064F
:10154000FDE138903892000EF86E000109EF04F0CA
:10155000332A3B0E3364AFEF0AF0B1EF0AF0B4EF79
:101560000AF0000E336E342A170E3464BAEF0AF014
:10157000BCEF0AF0BEEF0AF0000E346E7CEC08F00F
:10158000120031EC0BF0000E2F6E000E306E000ECC
:10159000056E05501E0FD96EDA6ADF6A052A030E42
:1015A0000564D5EF0AF0D7EF0AF0C9EF0AF0120090
:1015B000000E066E000E056E054A062A06BEEAEF0C
:1015C0000AF05D0E055C030E0658D8A0EAEF0AF09B
:1015D000ECEF0AF0DCEF0AF01200000E056E055089
:1015E000220FD96EDA6ADF6A052A030E0564FBEF63
:1015F0000AF0FDEF0AF0EFEF0AF01200000E346E71
:10160000000E336E000E296E000E286E000E316E35
:10161000000E376E010E366E1200056E1FC01EF0F2
:1016200020C01FF021C020F005C021F012008980E9
:10163000000E086E640E076E75EC0AF089901200B9
:10164000000E376E000E296E000E286E000E316EF1
:101650001200D08EF184F28AF294F28EF28CD58E42
:101660001200000E2E6E000E2D6E8C9012000101E5
:020000040020DA
:08000000FFFFFFFFFFFFFFFF00
:020000040030CA
:0E000000040E1E1EFF8181FF0FC00FE00F4097
:00000001FF
