:020000040000FA
:0400000010EF00F00D
:020004000000FA
:040008008BEF00F08A
:100020009490956A94908C6A6D966F86D59ED59CB7
:10003000D59AD596D584D582D580F28EF28CF28A67
:10004000C60E006E150E016E140E046E640E026E66
:10005000D90ED76EDA0ED66ED58E8B80320E6DEC41
:1000600000F08B90320E6DEC00F0042E2DEF00F0BE
:100070008B8082B839EF00F074EC00F082A83EEF7C
:1000800000F0030E8C6E640E6DEC00F082AA5BEF44
:1000900000F005908C468CAE43EF00F0640E6DECE2
:1000A00000F082AA5BEF00F005808C428CA04EEF3E
:1000B00000F043EF00F074EC00F082AA5DEF00F076
:1000C00082B860EF00F074EC00F082A865EF00F0F9
:1000D00005B04EEF00F043EF00F0036E7CEC00F053
:1000E000032E6EEF00F012007CEC00F0022E74EF95
:1000F00000F0640E026E1200012E81EF00F088EF16
:1001000000F0002E81EF00F0C60E006E7CEF00F0D4
:10011000150E016E12008B70F294D90ED76EDA0EA6
:04012000D66E100087
:00000001FF
