:0400000007EF00F016
:0A0008002A828DED09F070EF09F077
:1008000000433A4A5545474F202A2C233A52535425
:100810000041444956494E452041444300413A4134
:10082000444320423A4C4544005245494E494349CD
:10083000414E444F00494E434F52524543544F009E
:10084000434F52524543544F210041444320484FA7
:100850004C44004144432052554E00414443203D06
:0D086000200020202020005054533A0000BA
:10086E000F0E936EF00E8A6E5DEC0AF0000E176E90
:10087E00000E0D6E320E0C6EDBEC09F0172A090E0F
:10088E0017644CEF04F04EEF04F03FEF04F08C8051
:10089E0050EC0AF051EC09F069EC0AF03FEC0AF06A
:1008AE00B7EC05F01A6E030E2918D8A461EF04F008
:1008BE0063EF04F065EF04F03FEC0AF0030E291825
:1008CE00D8A46CEF04F06EEF04F083EF04F01A2856
:1008DE00D8B474EF04F076EF04F083EF04F0C00E9A
:1008EE0080EC0AF0540E7AEC0AF03D0E7AEC0AF027
:1008FE001A50300F7AEC0AF0010E80EC0AF00A0E54
:10090E001A18D8A48DEF04F08FEF04F091EF04F0D5
:10091E00000E296E0B0E1A18D8A498EF04F09AEF59
:10092E0004F09CEF04F0010E296E0C0E1A18D8A4D8
:10093E00A3EF04F0A5EF04F0ADEF04F0020E296E64
:10094E00000E1C6E000E1B6E000E216E0E0E1A187F
:10095E00D8A4B4EF04F0B6EF04F0C3EF04F00E0E1B
:10096E001A18D8A4BDEF04F0BFEF04F0C3EF04F0E3
:10097E002EEC0AF0030E296E0F0E1A18D8A4CAEF29
:10098E0004F0CCEF04F0F2EF04F02250D8B4D2EF22
:10099E0004F0D5EF04F0010ED6EF04F0000E226E37
:1009AE00010E80EC0AF02250D8B4E0EF04F0E2EF32
:1009BE0004F0E8EF04F04A0E0B6E2CEC09F0ECEFAD
:1009CE0004F0530E0B6E2CEC09F0030E086EE80EBD
:1009DE00076EA8EC09F02904D8A4F8EF04F0FAEF9A
:1009EE0004F0FDEF04F01A5052EC08F0020E291834
:1009FE00D8A404EF05F006EF05F02FEF05F01A2846
:100A0E00D8B40CEF05F00EEF05F02FEF05F00A0E3F
:100A1E001A6014EF05F016EF05F02FEF05F0040E37
:100A2E0021601CEF05F01EEF05F02FEF05F01BC047
:100A3E0005F01CC006F0000E086E0A0E076E1BECC9
:100A4E000AF01A5005241B6E000E06201C6E212A79
:100A5E00020E2918D8A436EF05F038EF05F076EF20
:100A6E0005F00D0E1A18D8A43FEF05F041EF05F072
:100A7E0076EF05F01B501F5C186E1C502058196E37
:100A8E0019BE4EEF05F04CEF05F052EF05F0186C65
:100A9E00191ED8B0192A19BE60EF05F0195007E1DA
:100AAE00150E185CD8B05EEF05F060EF05F067EF3D
:100ABE0005F01D4A1E2A010E19EC08F06AEF05F02A
:100ACE00000E19EC08F0070E086ED00E076EA8EC9B
:100ADE0009F0000E1C6E000E1B6E000E216E2350D0
:100AEE00D8B47CEF05F07EEF05F0ADEF05F0000E0B
:100AFE00236E94EF05F021EC07F08BEC08F0ADEFD0
:100B0E0005F086EC0AF025C027F026C028F0ADEFE0
:100B1E0005F081EC07F0ADEF05F02950156E166A61
:100B2E001650000AD8B49EEF05F0ADEF05F0155043
:100B3E00000AD8B482EF05F0010AD8B488EF05F0A8
:100B4E00030AD8B490EF05F0ADEF05F027C00CF016
:100B5E0028C00DF0DBEC09F057EF04F007EF00F0C2
:100B6E000E68700E8A6E000E086E050E076EA8ECEB
:100B7E0009F0D2EF05F0010E0E6EEFEF05F0020E4A
:100B8E000E6EEFEF05F0030E0E6EEFEF05F00A0E90
:100B9E000E6EEFEF05F081500C6E0D6A0D50000ACF
:100BAE00D8B4DCEF05F0EFEF05F00C50770AD8B4AF
:100BBE00C2EF05F00C0AD8B4C6EF05F0060AD8B499
:100BCE00CAEF05F0030AD8B4CEEF05F0EFEF05F04B
:100BDE00B00E8A6E000E086E050E076EA8EC09F0B8
:100BEE0009EF06F0040E0E6E26EF06F0050E0E6EE1
:100BFE0026EF06F0060E0E6E26EF06F00B0E0E6EAC
:100C0E0026EF06F081500C6E0D6A0D50000AD8B416
:100C1E0013EF06F026EF06F00C50B70AD8B4F9EF32
:100C2E0005F00C0AD8B4FDEF05F0060AD8B401EFB2
:100C3E0006F0030AD8B405EF06F026EF06F0D00E44
:100C4E008A6E000E086E050E076EA8EC09F040EFD6
:100C5E0006F0070E0E6E5DEF06F0080E0E6E5DEFDF
:100C6E0006F0090E0E6E5DEF06F00C0E0E6E5DEFC9
:100C7E0006F081500C6E0D6A0D50000AD8B44AEF82
:100C8E0006F05DEF06F00C50D70AD8B430EF06F040
:100C9E000C0AD8B434EF06F0060AD8B438EF06F0D2
:100CAE00030AD8B43CEF06F05DEF06F0E00E8A6E54
:100CBE00000E086E050E076EA8EC09F077EF06F031
:100CCE000E0E0E6E94EF06F0000E0E6E94EF06F002
:100CDE000F0E0E6E94EF06F00D0E0E6E94EF06F0E4
:100CEE0081500C6E0D6A0D50000AD8B481EF06F0DB
:100CFE0094EF06F00C50E70AD8B467EF06F00C0A32
:100D0E00D8B46BEF06F0060AD8B46FEF06F0030AFC
:100D1E00D8B473EF06F094EF06F00E28D8B49AEF1D
:100D2E0006F09CEF06F0A2EF06F0000E086E320EF3
:100D3E00076EA8EC09F00E501200096E09C007F0FC
:100D4E00073A0F0E0716010E0716074689500718A9
:100D5E00FD0B0718896E09C007F0050E086ED890B6
:100D6E000732082EB6EF06F0010E071607460746A5
:100D7E0089500718FB0B0718896E09C007F0060E7D
:100D8E00086ED8900732082EC8EF06F0010E07162F
:100D9E0007460746074689500718F70B0718896E4E
:100DAE00076A09AE01D0072A010E0716073A8950C5
:100DBE000718EF0B0718896E73EC0AF009C007F0DD
:100DCE00010E0716074689500718FD0B0718896E86
:100DDE0009C007F0D8900732010E071607460746DE
:100DEE0089500718FB0B0718896E09C007F0D890B9
:100DFE000732D8900732010E0716074607460746F8
:100E0E0089500718F70B0718896E09C007F0D8909C
:100E1E000732D8900732D8900732010E0716073ADC
:100E2E0089500718EF0B0718896E73EC0AF0F1EC76
:100E3E0009F012001FC00AF020C00BF0030E0D6E59
:100E4E00E80E0C6EDFEC07F00A50116E030E086E02
:100E5E00E80E076E1FC005F020C006F0FAEC08F091
:100E6E0005C00AF006C00BF0000E0D6E640E0C6E7F
:100E7E00DFEC07F00A50126E000E086E640E076E5D
:100E8E001FC005F020C006F0FAEC08F005C00AF00D
:100E9E0006C00BF0000E0D6E0A0E0C6EDFEC07F0A6
:100EAE000A50136E1FC005F020C006F0000E086E2B
:100EBE000A0E076EFAEC08F00550146E800E80ECE8
:100ECE000AF05B0E0B6E2CEC09F01150300F7AEC21
:100EDE000AF01250300F7AEC0AF01350300F7AEC01
:100EEE000AF01450300F7AEC0AF0620E0B6E2CECF6
:100EFE0009F012001BC00AF01CC00BF0030E0D6EA1
:100F0E00E80E0C6EDFEC07F00A50116E030E086E41
:100F1E00E80E076E1BC005F01CC006F0FAEC08F0D8
:100F2E0005C00AF006C00BF0000E0D6E640E0C6EBE
:100F3E00DFEC07F00A50126E000E086E640E076E9C
:100F4E001BC005F01CC006F0FAEC08F005C00AF054
:100F5E0006C00BF0000E0D6E0A0E0C6EDFEC07F0E5
:100F6E000A50136E1BC005F01CC006F0000E086E72
:100F7E000A0E076EFAEC08F00550146E800E80EC27
:100F8E000AF0110E0B6E2CEC09F08BEC0AF01150DE
:100F9E00300F7AEC0AF01250300F7AEC0AF0135040
:100FAE00300F7AEC0AF01450300F7AEC0AF012007F
:100FBE00000E0F6E000E0E6E0C500D10D8B4EAEF30
:100FCE0007F0ECEF07F014EF08F0010E106EF4EFDF
:100FDE0007F0D8900C360D36102A0DAEF9EF07F04B
:100FEE00FBEF07F0F0EF07F0D8900E360F360C50EF
:100FFE000A5C0D500B58D8A007EF08F009EF08F067
:10100E000EEF08F00C500A5E0D500B5A0E80D89061
:10101E000D320C32102EFBEF07F00EC00AF00FC08F
:10102E000BF01200116E010E80EC0AF01150D8B4C4
:10103E0023EF08F025EF08F02BEF08F0400E0B6EB3
:10104E002CEC09F02FEF08F0350E0B6E2CEC09F09E
:10105E008BEC0AF0670E0B6E2CEC09F01DC00AF03B
:10106E001EC00BF0000E0D6E0A0E0C6EDFEC07F0BC
:10107E000A50300F7AEC0AF01DC005F01EC006F0C3
:10108E00000E086E0A0E076EFAEC08F00550300FCF
:10109E007AEC0AF01200076E6DEF08F0000E266E65
:1010AE00190E256E8AEF08F0000E266E320E256E92
:1010BE008AEF08F0000E266E640E256E8AEF08F099
:1010CE00000E266EC80E256E8AEF08F00750056ECC
:1010DE00066A0650000AD8B477EF08F08AEF08F0D7
:1010EE000550010AD8B455EF08F0030AD8B45BEFE7
:1010FE0008F0010AD8B461EF08F0070AD8B467EF18
:10110E0008F08AEF08F01200000E1F5C010E205846
:10111E00D8B094EF08F096EF08F09CEF08F0000EB0
:10112E00286E190E276EC2EF08F0000E1F5C020E1D
:10113E002058D8B0A5EF08F0A7EF08F0ADEF08F0F3
:10114E00000E286E320E276EC2EF08F0000E1F5CE6
:10115E00030E2058D8B0B6EF08F0B8EF08F0BEEF87
:10116E0008F0000E286E640E276EC2EF08F0000E17
:10117E00286EC80E276E12001FC011F020C012F08C
:10118E00113A123AF00E121611500F0B1212F00EF7
:10119E00111611C00AF012C00BF0030E0D6E0C6882
:1011AE00DFEC07F00A50136E8BEC0AF0000E146E93
:1011BE001350145CD8B0E6EF08F0E8EF08F0EDEF4E
:1011CE0008F0FF0E7AEC0AF0F0EF08F0200E7AEC41
:1011DE000AF0142A0F0E1464F7EF08F0F9EF08F076
:1011EE00DFEF08F0120007500810D8B401EF09F035
:1011FE0003EF09F027EF09F0010E096E0BEF09F06E
:10120E00D89007360836092A08AE10EF09F012EF0B
:10121E0009F007EF09F00750055C08500658D8A0F2
:10122E001BEF09F01DEF09F021EF09F00750055EE5
:10123E000850065AD89008320732092E12EF09F0DC
:10124E0005C005F006C006F01200000E0E6E000E70
:10125E000D6E3FEF09F00B500D240C6E0CC0F6FF17
:10126E00080EF76E0800F5507AEC0AF00D4A0E2AB9
:10127E000B500D240C6E0CC0F6FF080EF76E080016
:10128E00F5500009D8A44EEF09F050EF09F032EFF7
:10129E0009F01200000E086E0F0E076EA8EC09F092
:1012AE00330E80EC0AF0320E80EC0AF0280E80EC41
:1012BE000AF00C0E80EC0AF0060E80EC0AF0010E1D
:1012CE0080EC0AF0000E086E050E076EA8EC09F011
:1012DE0012001E0EF66E150EF76E000EF86E00EE74
:1012EE0025F010EE05F00900F5CFEEFFE550E150C8
:1012FE00FAE100EE1BF00A0EEE6AE806FDE12A9016
:10130E002A92000EF86E000137EF04F00600F2A4E8
:10131E0093EF09F095EF09F0A6EF09F0DB0ED76E0B
:10132E00610ED66E2250D8A49FEF09F0A1EF09F0FE
:10133E00A3EF09F0C2EC09F0010E236EF2942A928B
:10134E001100000E0B6E000E0A6EB2EF09F0F1ECFA
:10135E0009F00A4A0B2A0A50075C0850800A096EE7
:10136E000B50800A0958D8B0BFEF09F0C1EF09F051
:10137E00AEEF09F0120006EC0AF0C282C2B2CAEF5A
:10138E0009F0CCEF09F0C5EF09F0C3CF1FF0206ACA
:10139E00C4CF24F02450046E036A1F5003101F6E36
:1013AE0020500410206E12008CA0E0EF09F0E4EF44
:1013BE0009F00E6A0E2AE5EF09F00E6A8C500E182F
:1013CE00FE0B0E188C6E0CC007F00DC008F0A8ECCA
:1013DE0009F01200000E066E000E056E054A062A72
:1013EE0006BE03EF0AF05D0E055C030E0658D8A08C
:1013FE0003EF0AF005EF0AF0F5EF09F01200000E08
:10140E00026E000E016E014A022A02BE18EF0AF0A9
:10141E005D0E015C030E0258D8A018EF0AF01AEF09
:10142E000AF00AEF0AF0120005500702F3CF09F096
:10143E00F4CF0AF005500802F3500A2606500702B0
:10144E00F3500A2609C005F00AC006F01200010E7C
:10145E0080EC0AF0290E0B6E2CEC09F0030E086ED0
:10146E00E80E076EA8EC09F0010E80EC0AF01200EF
:10147E00010E80EC0AF0010E80EC0AF01D0E0B6ED0
:10148E002CEC09F08BEC0AF0010E0B6E2CEC09F033
:10149E001200D08EF184F28AF294F28EF28C870EC4
:1014AE00D56EDB0ED76E610ED66E1200000E956EE7
:1014BE0092809292929492969298000E896E000E5D
:1014CE008C6E12000E0EC16E8E0EC06EC29AC29837
:1014DE00C296C294C28012008C84F1EC09F08C94F6
:1014EE00F1EC09F012000A6E8C820A50A4EC06F0A0
:1014FE0012000A6E8C920A50A4EC06F0120021EC37
:10150E0007F0C3EC08F01200C00E80EC0AF01200D7
:05151E00640019000348
:020000040020DA
:08000000FFFFFFFFFFFFFFFF00
:020000040030CA
:0E000000040E1E1EFF8181FF0FC00FE00F4097
:00000001FF
