:0400000007EF00F016
:0A0008003382B9ED07F059EF09F05B
:1008000000FC60DAF266B6BEE0FEF62A8E0A9E1C96
:100810000000000E1F6E000E146E000E116E000E12
:10082000106E000E1C6E000E1B6E000E1E6E000E73
:100830001D6E000E136E000E126E000E206E6D9671
:100840006F860F0EC16E000E956E94909492949CDC
:10085000949E0F0E936EF00E8A6E000E8C6E8B9E21
:100860008B9C8B928B9092908990F10ED76E5A0E42
:10087000D66E020ED56ED08EF184F28AF294F28E8C
:10088000F28CD58E000E1A6E000E196E8CA04BEFF6
:1008900004F04FEF04F00F6A0F2A50EF04F00F6AD4
:1008A0008C500F18FE0B0F188C6E000E156E000E7C
:1008B000166E000E176E000E186E010E1526000E35
:1008C00016221722182218BE72EF04F018501710C3
:1008D0000BE1F80E155CA70E1658D8A072EF04F0C5
:1008E00074EF04F05DEF04F0194A1A2A1ABE82EF81
:1008F00004F01A5009E10A0E195CD8A082EF04F046
:1009000084EF04F046EF04F08C8042EC07F02F50A7
:1009100009E1C80E2E5CD8A090EF04F092EF04F02D
:1009200013EF05F0C80E2E5E000E2F5A1F50D8B4DC
:100930009CEF04F09FEF04F0010EA0EF04F0000E16
:100940001F6E8CA0A6EF04F0AAEF04F00F6A0F2A26
:10095000ABEF04F00F6A8C500F18FE0B0F188C6E63
:100960003150D8A4B6EF04F0B8EF04F0D6EF04F09D
:100970003050D8B4BEEF04F0C0EF04F0C4EF04F080
:1009800042EC07F013EF05F01F50D8A4CAEF04F0B3
:10099000CCEF04F0C0EF04F0000E266E000E276EC0
:1009A000000E286E000E296E13EF05F01F50D8A41C
:1009B000DCEF04F0DEEF04F0DFEF04F0142A3B0E6E
:1009C0001464E5EF04F0E7EF04F0C0EF04F0000E6C
:1009D000146E2A4A2B2A2BBEF7EF04F02B5009E1A4
:1009E0003C0E2A5CD8A0F7EF04F0F9EF04F0FFEF1B
:1009F00004F0000E2B6E000E2A6E2C4A2D2A2DBEFE
:100A00000BEF05F02D5009E1180E2C5CD8A00BEF70
:100A100005F00DEF05F0C0EF04F0000E2D6E000E96
:100A20002C6EC0EF04F034EC06F0216E0A0E211893
:100A3000D8A41DEF05F01FEF05F04EEF05F0315083
:100A4000D8A425EF05F027EF05F04EEF05F0104A8A
:100A5000112A10041110D8A430EF05F032EF05F080
:100A600052EF05F066EC09F0010E306E42EC07F033
:100A7000070E086ED00E076E2AEC09F0000E306EDD
:100A8000000E2D6E000E2C6E000E2B6E000E2A6EC8
:100A900042EC07F0010E206E52EF05F0000E116ED1
:100AA000000E106E0B0E2118D8A459EF05F05BEF65
:100AB00005F09FEF05F03150D8A461EF05F063EF2A
:100AC00005F09FEF05F02050D8B469EF05F06BEF0B
:100AD00005F09FEF05F01B4A1C2A1B041C10D8A42C
:100AE00074EF05F076EF05F07AEF05F066EC09F0AB
:100AF000D8EC08F01CBE86EF05F01C5009E1150E7D
:100B00001B5CD8A086EF05F088EF05F0A3EF05F099
:100B10001BC005F01CC006F0000E086E030E076E29
:100B200080EC08F005500610D8A499EF05F09BEF73
:100B300005F0A3EF05F0D8EC08F0A3EF05F0000EE8
:100B40001C6E000E1B6E0C0E2118D8A4AAEF05F027
:100B5000ACEF05F0F0EF05F03150D8A4B2EF05F09E
:100B6000B4EF05F0F0EF05F02050D8B4BAEF05F07F
:100B7000BCEF05F0F0EF05F01D4A1E2A1D041E1003
:100B8000D8A4C5EF05F0C7EF05F0CBEF05F066EC94
:100B900009F003EC09F01EBED7EF05F01E5009E185
:100BA000150E1D5CD8A0D7EF05F0D9EF05F0F4EFD6
:100BB00005F01DC005F01EC006F0000E086E030E05
:100BC000076E80EC08F005500610D8A4EAEF05F097
:100BD000ECEF05F0F4EF05F003EC09F0F4EF05F0AD
:100BE000000E1E6E000E1D6E0D0E2118D8A4FBEF18
:100BF00005F0FDEF05F026EF06F03150D8A403EF25
:100C000006F005EF06F026EF06F02050D8B40BEF03
:100C100006F00DEF06F026EF06F0124A132A120432
:100C20001310D8A416EF06F018EF06F02AEF06F01E
:100C300066EC09F0010E316E000E146E000E2F6E80
:100C4000000E2E6E42EC07F02AEF06F0000E136E37
:100C5000000E126E000E086E050E076E2AEC09F0EB
:100C600087EF04F007EF00F00E68700E8A6E000E3A
:100C7000086E050E076E2AEC09F04FEF06F0010E24
:100C80000E6E6CEF06F0020E0E6E6CEF06F0030EA9
:100C90000E6E6CEF06F00A0E0E6E6CEF06F08150D1
:100CA0000C6E0D6A0D50000AD8B459EF06F06CEFC7
:100CB00006F00C50770AD8B43FEF06F00C0AD8B40F
:100CC00043EF06F0060AD8B447EF06F0030AD8B49B
:100CD0004BEF06F06CEF06F00E28D8B472EF06F07A
:100CE00074EF06F07DEF06F0000E086E320E076E10
:100CF0002AEC09F00E5041EF07F0B00E8A6E000E9C
:100D0000086E050E076E2AEC09F097EF06F0040E48
:100D10000E6EB4EF06F0050E0E6EB4EF06F0060E82
:100D20000E6EB4EF06F00B0E0E6EB4EF06F08150AF
:100D30000C6E0D6A0D50000AD8B4A1EF06F0B4EFA6
:100D400006F00C50B70AD8B487EF06F00C0AD8B4F6
:100D50008BEF06F0060AD8B48FEF06F0030AD8B47A
:100D600093EF06F0B4EF06F00E28D8B4BAEF06F011
:100D7000BCEF06F0BEEF06F074EF06F0D00E8A6E00
:100D8000000E086E050E076E2AEC09F0D8EF06F08B
:100D9000070E0E6EF5EF06F0080E0E6EF5EF06F07C
:100DA000090E0E6EF5EF06F00C0E0E6EF5EF06F066
:100DB00081500C6E0D6A0D50000AD8B4E2EF06F0B7
:100DC000F5EF06F00C50D70AD8B4C8EF06F00C0ABD
:100DD000D8B4CCEF06F0060AD8B4D0EF06F0030A78
:100DE000D8B4D4EF06F0F5EF06F00E28D8B4FBEF38
:100DF00006F0FDEF06F0FFEF06F074EF06F0E00EF0
:100E00008A6E000E086E050E076E2AEC09F019EFC7
:100E100007F00E0E0E6E36EF07F0000E0E6E36EF78
:100E200007F00F0E0E6E36EF07F00D0E0E6E36EF5A
:100E300007F081500C6E0D6A0D50000AD8B423EFF4
:100E400007F036EF07F00C50E70AD8B409EF07F0C7
:100E50000C0AD8B40DEF07F0060AD8B411EF07F06A
:100E6000030AD8B415EF07F036EF07F00E28D8B410
:100E70003CEF07F03EEF07F040EF07F074EF06F0AD
:100E8000FF0E12003050D8B448EF07F04AEF07F0D9
:100E900068EF07F00D0EF66E080EF76E0800F5CF3E
:100EA00026F00E0EF66E080EF76E0800F5CF27F04E
:100EB0000F0EF66E080EF76E0800F5CF28F0100E34
:100EC000F66E080EF76E0800F5CF29F0B8EF07F0C0
:100ED0002CC005F02DC006F0000E086E0A0E076E3D
:100EE0001EEC08F00550010F0D6E0DC0F6FF080E48
:100EF000F76E0800F5CF26F02CC005F02DC006F0E7
:100F0000000E086E0A0E076E80EC08F00550010F07
:100F10000D6E0DC0F6FF080EF76E0800F5CF27F036
:100F20002AC005F02BC006F0000E086E0A0E076EF0
:100F30001EEC08F00550010F0D6E0DC0F6FF080EF7
:100F4000F76E0800F5CF28F02AC005F02BC006F098
:100F5000000E086E0A0E076E80EC08F00550010FB7
:100F60000D6E0DC0F6FF080EF76E0800F5CF29F0E4
:100F700012000600D9CF03F0DACF04F0F2A4C3EFD9
:100F800007F0C5EF07F018EF08F0F10ED76E5A0E14
:100F9000D66E8B9E8B9C8B928B9083B0D2EF07F09A
:100FA000D6EF07F0016A012AD7EF07F0016A325045
:100FB000260FD96EDA6ADF50FE0B01108C6EEDEF52
:100FC00007F08B8E0AEF08F08B8C0AEF08F08B820B
:100FD0000AEF08F08B800AEF08F03250016E026AC7
:100FE0000250000AD8B4F7EF07F00AEF08F00150FA
:100FF000000AD8B4E1EF07F0010AD8B4E4EF07F033
:10100000030AD8B4E7EF07F0010AD8B4EAEF07F013
:101010000AEF08F0322A030E326411EF08F013EFE2
:1010200008F015EF08F0000E326E2E4A2F2AF294C7
:1010300004C0DAFF03C0D9FF33921100000E0A6E1C
:1010400008BE27EF08F025EF08F02DEF08F0076C39
:10105000081ED8B0082A010E0A6E06BE34EF08F04A
:1010600032EF08F03AEF08F0056C061ED8B0062AF9
:10107000010E0A1A000E0C6E000E0B6E07500810BF
:10108000D8B445EF08F047EF08F06FEF08F0010E15
:10109000096E4FEF08F0D89007360836092A08AED7
:1010A00054EF08F056EF08F04BEF08F0D8900B36ED
:1010B0000C360750055C08500658D8A062EF08F0BF
:1010C00064EF08F069EF08F00750055E0850065A13
:1010D0000B80D89008320732092E56EF08F00A50DC
:1010E000D8B475EF08F077EF08F07BEF08F00B6CE1
:1010F0000C1ED8B00C2A0BC005F00CC006F0120074
:10110000000E0A6E06BE89EF08F087EF08F08FEF39
:1011100008F0056C061ED8B0062A010E0A6E08BE3D
:1011200096EF08F094EF08F09AEF08F0076C081EAD
:10113000D8B0082A07500810D8B4A1EF08F0A3EFE0
:1011400008F0C7EF08F0010E096EABEF08F0D89079
:1011500007360836092A08AEB0EF08F0B2EF08F0FB
:10116000A7EF08F00750055C08500658D8A0BBEF61
:1011700008F0BDEF08F0C1EF08F00750055E085019
:10118000065AD89008320732092EB2EF08F00A50FA
:10119000D8B4CDEF08F0CFEF08F0D3EF08F0056C2E
:1011A000061ED8B0062A05C005F006C006F01200DB
:1011B0002A4A2B2A2BBEE6EF08F02B5009E13C0E01
:1011C0002A5CD8A0E6EF08F0E8EF08F0EEEF08F0B0
:1011D000000E2B6E000E2A6E2C4A2D2A2DBEFAEF21
:1011E00008F02D5009E1180E2C5CD8A0FAEF08F099
:1011F000FCEF08F000EF09F0000E2D6E000E2C6ED3
:1012000042EC07F012002A502B10D8A40AEF09F084
:101210000CEF09F024EF09F0000E2B6E3B0E2A6E46
:101220002C502D10D8A417EF09F019EF09F01FEF7B
:1012300009F0000E2D6E170E2C6E27EF09F02C060C
:10124000D8A02D0627EF09F02A06D8A02B0642ECDD
:1012500007F01200000E0B6E000E0A6E34EF09F05C
:1012600044EC09F00A4A0B2A0A50075C0850800A2D
:10127000096E0B50800A0958D8B041EF09F043EFCE
:1012800009F030EF09F01200000E066E000E056E38
:10129000054A062A06BE56EF09F05D0E055C030EF0
:1012A0000658D8A056EF09F058EF09F048EF09F0BA
:1012B000120000EE22F0110EEE6AE806FDE1339016
:1012C0003392000EF86E000109EF04F08980000EE1
:0E12D000086E640E076E2AEC09F08990120079
:020000040020DA
:08000000FFFFFFFFFFFFFFFF00
:020000040030CA
:0E000000040E1E1EFF8181FF0FC00FE00F4097
:00000001FF
