:0400000007EF00F016
:0A0008002082A3ED05F05EEF06F084
:1008000000FC60DAF266B6BEE0FEF62A8E000E68E4
:10081000700E8A6E000E086E050E076E2FEC06F045
:1008200022EF04F0010E0E6E3FEF04F0020E0E6E8A
:100830003FEF04F0030E0E6E3FEF04F00A0E0E6E53
:100840003FEF04F081500C6E0D6A0D50000AD8B4D1
:100850002CEF04F03FEF04F00C50770AD8B412EFFD
:1008600004F00C0AD8B416EF04F0060AD8B41AEF54
:1008700004F0030AD8B41EEF04F03FEF04F00E2892
:10088000D8B445EF04F047EF04F050EF04F0000E49
:10089000086E320E076E2FEC06F00E5014EF05F0C6
:1008A000B00E8A6E000E086E050E076E2FEC06F075
:1008B0006AEF04F0040E0E6E87EF04F0050E0E6E64
:1008C00087EF04F0060E0E6E87EF04F00B0E0E6E2F
:1008D00087EF04F081500C6E0D6A0D50000AD8B4F9
:1008E00074EF04F087EF04F00C50B70AD8B45AEF55
:1008F00004F00C0AD8B45EEF04F0060AD8B462EF34
:1009000004F0030AD8B466EF04F087EF04F00E2871
:10091000D8B48DEF04F08FEF04F091EF04F047EFBF
:1009200004F0D00E8A6E000E086E050E076E2FECD6
:1009300006F0ABEF04F0070E0E6EC8EF04F0080EE1
:100940000E6EC8EF04F0090E0E6EC8EF04F00C0E28
:100950000E6EC8EF04F081500C6E0D6A0D50000A47
:10096000D8B4B5EF04F0C8EF04F00C50D70AD8B4EF
:100970009BEF04F00C0AD8B49FEF04F0060AD8B439
:10098000A3EF04F0030AD8B4A7EF04F0C8EF04F013
:100990000E28D8B4CEEF04F0D0EF04F0D2EF04F07C
:1009A00047EF04F0E00E8A6E000E086E050E076E2B
:1009B0002FEC06F0ECEF04F00E0E0E6E09EF05F0D2
:1009C000000E0E6E09EF05F00F0E0E6E09EF05F02A
:1009D0000D0E0E6E09EF05F081500C6E0D6A0D5074
:1009E000000AD8B4F6EF04F009EF05F00C50E70A5E
:1009F000D8B4DCEF04F00C0AD8B4E0EF04F0060A37
:100A0000D8B4E4EF04F0030AD8B4E8EF04F009EF37
:100A100005F00E28D8B40FEF05F011EF05F013EF35
:100A200005F047EF04F0FF0E12006D966F860F0E73
:100A3000C16E000E956E94909492949C949E0F0EAD
:100A4000936EF00E8A6E000E8C6E8B9E8B9C8B923A
:100A50008B9092908990E20ED76EB40ED66E020EF5
:100A6000D56ED08EF184F28AF294F28EF28CD58E0D
:100A7000000E156E000E146E8CA041EF05F045EFD0
:100A800005F00F6A0F2A46EF05F00F6A8C500F1819
:100A9000FE0B0F188C6E000E106E000E116E000E05
:100AA000126E000E136E010E1026000E112212227D
:100AB000132213BE68EF05F0135012100BE1F80E6D
:100AC000105CA70E1158D8A068EF05F06AEF05F08A
:100AD00053EF05F0144A152A15BE78EF05F01550AE
:100AE00009E10A0E145CD8A078EF05F07AEF05F062
:100AF0003CEF05F08C8006EC06F007EC04F0166E77
:100B00001628D8B486EF05F088EF05F07DEF05F0E4
:100B10000A0E16608EEF05F090EF05F095EF05F0E8
:100B200016506BEC06F077EC06F007EC04F0FF0AC9
:100B3000D8A49DEF05F09FEF05F095EF05F07DEF50
:100B400005F007EF00F00600D9CF03F0DACF04F08C
:100B5000F2A4ADEF05F0AFEF05F000EF06F0E20E06
:100B6000D76EB40ED66E8B9E8B9C8B928B908CB076
:100B7000BCEF05F0C0EF05F0016A012AC1EF05F0F6
:100B8000016A1F501B0FD96EDA6ADF50FE0B01108D
:100B90008C6ED7EF05F08B8EF4EF05F08B8CF4EFB5
:100BA00005F08B82F4EF05F08B80F4EF05F01F5019
:100BB000016E026A0250000AD8B4E1EF05F0F4EFCA
:100BC00005F00150000AD8B4CBEF05F0010AD8B403
:100BD000CEEF05F0030AD8B4D1EF05F0010AD8B47E
:100BE000D4EF05F0F4EF05F01F2A030E1F64FBEFAE
:100BF00005F0FDEF05F0FFEF05F0000E1F6EF2941B
:100C000004C0DAFF03C0D9FF209211001750010F72
:100C1000056E05C0F6FF080EF76E0800F5CF1BF055
:100C20001850010F056E05C0F6FF080EF76E08009C
:100C3000F5CF1CF01950010F056E05C0F6FF080E28
:100C4000F76E0800F5CF1DF01A50010F056E05C0B4
:100C5000F6FF080EF76E0800F5CF1EF01200000E2A
:100C60000B6E000E0A6E39EF06F049EC06F00A4AE8
:100C70000B2A0A50075C0850800A096E0B50800A44
:100C80000958D8B046EF06F048EF06F035EF06F009
:100C90001200000E066E000E056E054A062A06BEFC
:100CA0005BEF06F05D0E055C030E0658D8A05BEF07
:100CB00006F05DEF06F04DEF06F0120000EE17F0C3
:100CC000090EEE6AE806FDE120902092000EF86E13
:100CD000000115EF05F0066E18C017F019C018F0E6
:100CE0001AC019F006C01AF006EC06F0120089804E
:100CF000000E086E640E076E2FEC06F0899012004D
:020000040020DA
:08000000FFFFFFFFFFFFFFFF00
:020000040030CA
:0E000000040E1E1EFF8181FF0FC00FE00F4097
:00000001FF
