:020000040000FA
:0400000010EF00F00D
:020004000000FA
:10002000956A6D966F8694908C6A8B90C60E006E62
:10003000150E016E140E066E000E076E8B80320ECA
:10004000C6EC00F08B90320EC6EC00F0062E1EEFD0
:1000500000F08B8082B82AEF00F0CDEC00F082A88F
:100060002FEF00F0CDEC00F04FEF00F0010E075C39
:10007000D8B446EF00F0020E075CD8B449EF00F0A8
:10008000030E075CD8B44CEF00F0120061EC00F0F6
:1000900012007DEC00F0120097EC00F01200072A2D
:1000A000040E075CD8A457EF00F0010E076E36EC83
:1000B00000F082AABDEF00F082A82FEF00F057EF0A
:1000C00000F0800E046E010E056E82AA120082A856
:1000D0001200045005108C6E320EC6EC00F0044283
:1000E000054604A076EF00F079EF00F004A665EF76
:1000F00000F00442054665EF00F0010E8C6E320EF2
:10010000C6EC00F082AA120082A812008C468CAEC7
:100110007FEF00F0320EC6EC00F082AA120082A837
:1001200012008C428CA08AEF00F07DEF00F0030EED
:10013000086E0F0E8C6E320EC6EC00F082AA120012
:1001400082A812008C6A320EC6EC00F0082E99EFDD
:1001500000F0030E086EF00E8C6E320EC6EC00F04E
:1001600082AA120082A812008C6A320EC6EC00F03D
:10017000082EABEF00F097EF00F08C6A076A82AAB6
:10018000BFEF00F0CDEC00F02AEF00F0036ED5ECED
:1001900000F0032EC7EF00F01200D5EC00F0022EA5
:1001A000CDEF00F0640E026E1200012EDAEF00F0C7
:1001B000E1EF00F0002EDAEF00F0C60E006ED5EF92
:0801C00000F0150E016E1200A3
:00000001FF
